:020000040800F2
:10000000C00400209D010008D31400082514000836
:10001000D1140008A90200088D1600080000000095
:10002000000000000000000000000000D7140008DD
:100030004903000800000000D5140008D914000886
:10004000B7010008B7010008B7010008B7010008B0
:10005000B7010008B7010008B7010008B7010008A0
:10006000B7010008B7010008B7010008B701000890
:10007000B7010008B7010008B7010008B701000880
:10008000B7010008B7010008B7010008B701000870
:10009000AD020008B7010008B7010008B701000869
:1000A000B7010008B7010008B7010008B701000850
:1000B000B7010008B7010008B7010008B701000840
:1000C000B7010008B7010008B7010008B701000830
:1000D000B7010008B7010008B7010008B701000820
:1000E000B7010008B7010008B7010008B701000810
:1000F000B7010008B7010008B7010008B701000800
:10010000B7010008B7010008B7010008B7010008EF
:10011000B7010008B7010008B7010008B7010008DF
:10012000B7010008B7010008B7010008B7010008CF
:10013000B7010008B7010008B7010008B7010008BF
:10014000B7010008B7010008B7010008B7010008AF
:10015000B7010008B7010008B7010008B70100089F
:10016000B7010008B7010008B7010008B70100088F
:10017000B7010008B7010008B7010008000000003F
:10018000B7010008B7010008DFF80CD000F07AF8DA
:1001900000480047F5160008C004002006488047C4
:1001A00006480047FEE7FEE7FEE7FEE7FEE7FEE75C
:1001B000FEE7FEE7FEE7FEE771150008890100088B
:1001C0002DE9F05F0546002092469B46884606468C
:1001D000814640241BE0284641464746224600F01F
:1001E00041F853465A46C01A914110D31146184659
:1001F000224600F028F82D1A67EB01084F462246E8
:100200000120002100F01FF817EB00094E41201ECD
:10021000A4F10104DFDC484631462A464346BDE8E6
:10022000F09FD2B201E000F8012B491EFBD27047CB
:100230000022F6E710B513460A4604461946FFF7B2
:10024000F0FF204610BD202A04DB203A00FA02F11C
:10025000002070479140C2F1200320FA03F31943B4
:1002600090407047202A04DB203A21FA02F0002156
:10027000704721FA02F3D040C2F1200291400843B6
:1002800019467047064C074D06E0E06840F0010350
:1002900094E8070098471034AC42F6D3FFF778FF94
:1002A0006018000880180008FEE70000014800F010
:1002B000C0B900005000002070B58AB00125DDE90A
:1002C0000E64CDE9054549010091510100240191D9
:1002D0000794590102917101CDE90314CDE9085445
:1002E000694600F0A5F80AB070BD10B504460221B9
:1002F00000F02DF82046BDE8104000F0ADBB000036
:1003000070B5104C15460646216000216160A16061
:10031000C4E903130123214600F02BF800280FD075
:1003200002232A462146304600F023F8002807D051
:100330002A4621463046BDE87040042300F019B833
:1003400070BD000038000020704772B6FEE790F8DC
:100350002020012A07D0022A05D0416A41F48021D9
:10036000416201207047006842690A4342610020EF
:100370007047F0B590F820500468A468012D05D0AE
:10038000022D03D0416A41F480214DE014F0406F0A
:1003900001D1E50045D5C4F301640125A5401D60E8
:1003A0008D684FF4C0739DB1CE6835434E6845EA01
:1003B000C605066803EB0417F5514FF4C2750768CC
:1003C00005EB04150E697E51097D012905D009E070
:1003D0000E88CD6845EA4655EBE701684E5946F46C
:1003E00080764E511179D2F805504FF4C67641EA25
:1003F0000521056806EB0416A9511178D2F80120F1
:100400004FF4C47541EA0221026805EB041551510D
:10041000006803EB0411425842F0010242500020F0
:10042000F0BD416A41F4001141620120F0BD0000BD
:1004300010B590F82020012A07D0022A05D0416A81
:1004400041F480214162012010BD3B48D0F80022D8
:1004500042F00102C0F80022D0F8002222F47C52BF
:10046000C0F80022D0F800224B6A42EA0322C0F80A
:1004700000220A7D02F01F0301229A40D0F81C32AC
:100480009343C0F81C32CB69B3B9D0F80C32934314
:10049000C0F80C328C894B6864F31F434C6900EB45
:1004A000C404C4F840320C890B6864F31F434C69E0
:1004B00000EBC404C4F84432CB69012B16D1D0F848
:1004C0000C321343C0F80C320C884B6864F31F43A2
:1004D0004C6900EBC404C4F840320C89CB6864F367
:1004E0001F434C6900EBC404C4F844328B69002BF1
:1004F000D0F804320ED01343C0F804320B69002B3D
:10050000D0F8143208D01343C0F81432096A012914
:1005100004D008E09343EFE79343F5E7D0F81C12CB
:100520001143C0F81C12D0F8001221F00101C0F8EC
:100530000012002010BD000000640040704770B53C
:1005400090F82040012C05D0022C03D0416A41F4E0
:10055000802128E0046809B32469A40720D04FF45F
:10056000D874056804EB01142D5915F00405956045
:1005700005682D591AD0ED08556005682C5904F00E
:100580000204D4604FF4DA74056804EB01142E59A8
:1005900006F00F06082E0CD308250DE0E468DCE712
:1005A000416A41F400114162012070BD6D0D15607A
:1005B000E3E72D5905F00F05156105682D59C5F3C1
:1005C0000725956105682C59240C54614FF4DC72A1
:1005D000046802EB0112A4581C700468A458240A91
:1005E0005C700468A458240C9C700468A258120E15
:1005F000DA704FF4DE72046802EB0112A4581C7129
:100600000468A458240A5C710468A458240C9C71E2
:100610000468A258120EDA71006829B1016941F02C
:1006200020010161002070BDC16841F02001C1605E
:10063000F8E72DE9F05F0546006800244669D0F828
:1006400004908768D0F80CB0D0F810A0D0F81880CB
:10065000F10748D0F90714D001218160B80703D50C
:10066000284600F026FA0CE0780702D54FF4006423
:1006700007E0380702D54FF4805402E0284600F026
:1006800017FAF80516D529684FF480708860B80508
:1006900003D5284600F00FFA0CE0780502D544F4A3
:1006A000005407E0380502D544F4804402E02846AF
:1006B00000F000FAF80316D529684FF480308860FE
:1006C000B80303D5284600F0F8F90CE0780302D50A
:1006D00044F4004407E0380302D544F4803402E0D7
:1006E000284600F0E9F9300707D55FEACB6004D56A
:1006F0002968102044F40074C86070074FF00807A0
:1007000007D55FEA0B7004D52868C760284600F05B
:1007100059F9B00706D52868C068800702D0284676
:1007200000F052F9700607D55FEACA6004D529685F
:10073000102044F480640861B00607D55FEA0A70AF
:1007400004D528680761284600F082F9F00606D52E
:1007500028680069800702D0284600F07AF9B003C3
:1007600008D55FEAC96005D5296810204860284689
:1007700000F070F9F00307D55FEA097004D5286826
:100780004760284600F09AF9300446D55FEA497080
:1007900040D5F00504D55FEAC87001D044F00104EB
:1007A000B00504D55FEA887001D544F002047005F5
:1007B00004D55FEA487001D544F00404300529D51A
:1007C00018F0700F26D008F07000402815D006DC15
:1007D000102809D020280AD0302816D10AE0502845
:1007E0000ED0602811D10EE044F008040DE044F072
:1007F00010040AE044F0200407E044F0400404E060
:1008000044F0800401E044F480742868816921F098
:1008100070018161296804204860002C05D0686A55
:10082000204368622846FFF789FEBDE8F09F70B557
:10083000040003D094F8200010B104E0012070BD42
:10084000204600F081F82068016841F00101016054
:1008500000F02EFA0546052604E000F029FA401BB8
:100860000A2811D820684068C007F6D020680168BF
:1008700021F00201016000F01BFA05460BE000F0D8
:1008800017FA401B0A2806D9606A40F400306062FB
:1008900084F82060D2E7206840688007EFD4207E8B
:1008A0000128206801683DD021F080010160607E50
:1008B00001282068016838D021F040010160A07E45
:1008C00001282068016833D021F020010160E07E1A
:1008D0000128206801682ED041F010010160207FBE
:1008E00001282068016829D021F008010160607F9B
:1008F00001282068016824D021F004010160D4E9B6
:1009000002010843D4E90412114308436168491EF7
:1009100008432168C86100206062012084F820003B
:10092000002070BD41F08001C0E741F04001C5E703
:1009300041F02001CAE721F01001CFE741F00801A2
:10094000D4E741F00401D9E710B586B0044614217C
:100950006846FFF76DFC18492068884229D117487E
:100960000021026842F000720260006800F000702E
:10097000059012481038026842F0010202600068D7
:1009800000F0010005904FF4C05000900220CDE926
:10099000010103200390092004906946084800F0F3
:1009A0008FF800221146142000F0F0F9142000F016
:1009B000DFF906B010BD000000640040403802407E
:1009C000000002407047000010B500681D4988B063
:1009D000884235D11C4B6A4600211C48FFF7AFFD09
:1009E0001949F2EE090AA1F12004B1F80100BAEEAA
:1009F000090A40BA2060CA7813010A7943EA12133F
:100A00006360497902F00F0241EA0221A1601021DE
:100A100000F006FF84ED030A0C21F3EE0E0ABBEE94
:100A20000E0A606800F0FCFE84ED040A0C21F2EE70
:100A3000040ABAEE040AA06800F0F2FE84ED050A8A
:100A400008B010BD006400402000002050000020CD
:100A5000704770477047000070B5044690F820005A
:100A6000012804D0606A40F40020606218E002208F
:100A700084F820002068016821F00101016000F085
:100A800017F905460EE000BF00F012F9401B0A28D6
:100A900008D9606A40F400306062052084F82000C4
:100AA000012070BD20684068C007EDD1606270BD54
:100AB0007047704770477047704770477047000035
:100AC0002DE9F84FDFF8BCA10022012503264FF0E5
:100AD0000F090AF1040BAAF1040E00BF0B6805FA16
:100AE00002F42340A34270D10F7907F00307012FCE
:100AF00001D0022F16D187684FEA420806FA08FC97
:100B000027EA0C07D1F80CC00CFA08FC4CEA070CD9
:100B1000C0F808C04768A7430C79C4F30014944098
:100B20003C4344600C79E443A4070AD0C4684FEA0C
:100B3000420C06FA0CF7BC438F6807FA0CF7274300
:100B4000C7600C7904F00304022C12D1D40800EB26
:100B5000840CDCF820405707FF0E09FA07F824EA56
:100B60000804D1F8108008FA07F848EA0408CCF81D
:100B7000208004684FEA420C06FA0CF7BC430F7958
:100B800007F0030707FA0CF7274307604C6814F4D3
:100B9000403F70D03C4C276847F48047276024686A
:100BA00022F0030704F480440094384C07EB040C53
:100BB000DCF8084897074FEA177809FA08F7BC43AA
:100BC000334FB84202D1002724E054E0314FB842FD
:100BD00001D101271EE0304FB84201D1022719E0B0
:100BE0002E4FB84201D1032714E02D4FB84201D156
:100BF00004270FE02B4FB84201D105270AE02A4F06
:100C0000B84201D1062705E0284FB84201D1072795
:100C100000E0082707FA08F72743CCF80878DAF845
:100C200000405746D1F804C09C435FEACC2C00D565
:100C30001C433C60DBF800405F46D1F804C09C4395
:100C40005FEA8C2C00D51C433C60DEF80040774600
:100C5000D1F804C09C435FEA8C3C00D51C433C6047
:100C6000084F083F3C68D1F804C09C435FEACC3C85
:100C700000D51C433C60521C102AFFF42FAFBDE886
:100C8000F88F0000083C0140443802400030014029
:100C9000000002400004024000080240000C024034
:100CA000001002400014024000180240001C0240E4
:100CB00001488068704700002800002002488168D1
:100CC0000278114481607047280000200B4810B55D
:100CD000016841F400710160016841F480610160C4
:100CE000016841F480710160032000F06FF80F206B
:100CF00000F006F800F024F8002010BD003C02408F
:100D000070B50D4D04464FF47A712878B1FBF0F0C0
:100D10000A490968B1FBF0F000F00AFB48B9102C51
:100D200007D200222146501E00F030F800206C60EF
:100D300070BD012070BD000028000020340000209C
:100D40000A4808B5016841F480410160006800F478
:100D5000804000900548001F016841F0805101600B
:100D6000006800F08050009008BD00004438024048
:100D7000002809DB00F01F0201219140400980009A
:100D800000F1E020C0F8001170470000F0B40E4BF5
:100D90001B680C46C3F30223C3F10705042D00D9D9
:100DA0000425191D072901D2002300E0DB1E0126BE
:100DB00006FA05F1491E214099409E40761E1640D4
:100DC0003143F0BC00F063BC0CED00E0064900F0DC
:100DD000070208684FF6FF03184040EA0220034A62
:100DE00010430860704700000CED00E00000FA05B9
:100DF0002DE9F0470E46050065D0DFF81481D8F8DC
:100E00000000F7B200F00700B04207D288F8007087
:100E1000D8F8000000F00700B04254D128683D4CDB
:100E2000810712D5400703D5206840F4E0502060C8
:100E30002878000703D5206840F4604020602068CF
:100E4000A96820F0F000084320602878C0072DD062
:100E5000304968680839012812D0022813D00328C5
:100E600011D00968890700292DDA216821F00301D2
:100E700001432160FFF71CFF814641F2883A0EE0F2
:100E800009688903EFE709688901ECE7FFF710FFBC
:100E9000A0EB0901514502D90320BDE8F087206885
:100EA000696800F00C00B0EB810FEFD1D8F80010AA
:100EB000404601F00701B14207D90770006800F011
:100EC0000700B04201D00120E7E72878400705D5A8
:100ED0002068E96820F4E050084320602878000783
:100EE00006D52068296920F4604040EAC1002060EE
:100EF00000F038F82168084AC1F30311515CC8407A
:100F00000649086006480068FFF7FAFE0020C4E7BB
:100F1000003C024008380240481800083400002015
:100F20002C0000200448054900680968044AC1F300
:100F30008221515CC84070473400002008380240CC
:100F4000581800080448054900680968044AC1F3B4
:100F50004231515CC84070473400002008380240DC
:100F600058180008154810B5006810F00C02144815
:100F700013D04110042A0FD0082A0ED10F4C241F81
:100F80002268236802F03F025B0207D52068C0F3A5
:100F90008810A0FB010106E0084610BD2168C1F3DE
:100FA0008811A1FB00010023FFF70AF92168C1F3B2
:100FB0000141491C4900B0FBF1F010BD0838024066
:100FC0000024F4002DE9F84F04006ED02078DFF8FB
:100FD0004C93C007A9F104054AD009F10400016847
:100FE000C1F38101012908D00068C0F38100022803
:100FF0000AD1D9F80000400206D52868800337D509
:1010000060680028E1D033E06068B0F5803F10D020
:10101000B0F5A02F286810D020F480302860286810
:1010200020F4802028606068A8B1FFF741FE0646E2
:101030000DE0286840F48030F4E740F48020286018
:10104000F7E700BFFFF734FE801B642873D82868D9
:101050008003F7D50CE0FFF72BFE064605E000BF46
:10106000FFF726FE801B6428F0D828688003F7D499
:101070002078DFF8AC8280074FF0000A3ED5A74801
:10108000001D016811F00C0F08D00068C0F381004A
:1010900002280BD1D9F80000400207D42868800745
:1010A00016D5E068012800D112E033E1E068B8B15C
:1010B0000120C8F80000FFF7FBFD064605E000BF71
:1010C000FFF7F6FD801B0228C0D828688007F7D5F7
:1010D0002868216920F0F80040EAC10028600DE08E
:1010E000C8F800A0FFF7E4FD064604E0FFF7E0FDC6
:1010F000801B02281FD828688007F7D420780007B3
:1011000022D5864F87486169703771B1012101602E
:10111000FFF7CEFD064604E0FFF7CAFD801B02285C
:1011200009D838688007F7D50EE0C0F800A0FFF7AF
:10113000BFFD064605E082E0FFF7BAFD801B0228EE
:101140007DD838688007F7D42078400768D5DFF865
:10115000CCB100270BF13C0BDBF80000C0000BD436
:10116000DBF8001041F08051CBF80010DBF80000F4
:10117000012700F0805000906B4E3068C00510D4FD
:10118000306840F480703060FFF792FD009005E019
:10119000FFF78EFD0099401A022850D83068C0052C
:1011A000F6D55E4EA0686C3601280FD00528306851
:1011B00010D020F001003060306820F00400306072
:1011C000A068B8B1FFF774FD00900FE0306840F000
:1011D0000100F4E740F004003060F7E7FFF768FD36
:1011E0000099411A41F28830814266D83068800700
:1011F000F4D50EE0FFF75CFD009007E0FFF758FD27
:101200000099411A41F28830814256D830688007EF
:10121000F4D42FB1DBF8001021F08051CBF800108E
:10122000A069C8B33D49091D0968C1F381010229BC
:101230004AD00228504607D0C8F8600000E03CE0E1
:10124000FFF736FD04463BE04746C8F86000FFF76D
:101250002FFD064605E000BFFFF72AFD801B022890
:101260002BD828688001F7D4D4E907010843A16A84
:101270002E4A490802EB0141626A41EA82110843A1
:1012800094F82C1040EA0161C9F80010012038667A
:10129000FFF70EFD044606E03EE000BFFFF708FD45
:1012A000001B022809D828688001F7D534E000BF68
:1012B000FFF7FEFC001B022802D90320BDE8F88FCF
:1012C00028688001F4D427E00128F7D0D9F800007D
:1012D000E26900F4800191421CD1226A00F03F01D2
:1012E000914217D147F6C071626A0140B1EB821F8B
:1012F00010D1A26A4FF0FF3300F4403103EB5202E9
:10130000B1EB024F06D194F82C1000F07060B0EBF6
:10131000016F01D00120D1E70020CFE7043802405F
:1013200000004742800E4742007000400000FFFF6F
:1013300010B5401EB0F1807F01D3012010BD4FF0E9
:10134000E02460610F21601700F0A1F90020A06186
:1013500007202061002010BD70B5040004D094F86F
:101360004100002510B106E0012070BD84F8405016
:10137000204600F023F8242084F841002068C1684A
:1013800021F40051C160204600F0FAF8206801699C
:1013900021F4904101612068416921F02A014161F5
:1013A0002068C16841F40051C1606564202084F860
:1013B000410084F842006563002070BD10B586B01E
:1013C000044614216846FEF733FF1349206888421B
:1013D0001FD112480021026842F400220260006816
:1013E00000F4002005900D481038026842F0010218
:1013F00002600068022200F0010005900320CDE9A0
:101400000210CDE900020820049069460448FFF765
:1014100057FB06B010BD0000004C004040380240B1
:1014200000000240FEE700000F4810B50D490160C2
:101430000321416000214FF400228160C0E90312C2
:101440004FF440124261017641768176C176017790
:101450004177FFF7ECF9002803D0BDE81040FEF714
:1014600074BF10BD0064004050000020094808B55A
:10147000016841F080010160016801F08001009184
:10148000016841F001010160006800F00100009076
:1014900008BD0000303802400C4810B50A49016010
:1014A0004FF4E1314160002181600C22C160C0E94C
:1014B00004128161C161FFF74FFF002803D0BDE82E
:1014C0001040FEF742BF10BD004C004078000020E5
:1014D000FEE7FEE770477047FFF7F0BB30B593B00B
:1014E00030216846FEF7A4FE14210CA8FEF7A0FEEA
:1014F0001D480025016841F080510160006800F03E
:10150000805011901948016841F4804101600068E1
:10151000022400F48040119001200090000401900A
:101520008001CDE9064008AA0420A82182E8130022
:101530000B906846FFF746FD08B172B6FEE70CA9AE
:101540000F2081E831004FF4A0500F904FF48050ED
:10155000109005210CA8FFF74BFC002801D072B6B3
:10156000FEE713B030BD000040380240007000407C
:101570000248016841F470010160704788ED00E0A5
:1015800070B5044600680169E26821F440511143D6
:1015900001612169A068E269084361691143084358
:1015A0002168CA6849F20C639A430243CA60206802
:1015B0004169A26921F440711143416131492068B8
:1015C000884202D03049884202D1FFF7BBFC01E0DB
:1015D000FFF7A8FCE2690023192164253226B2F541
:1015E000004F626828D0A0FB0101930F9200FEF724
:1015F000E7FD0146B0FBF5F06FF01802504301EB38
:10160000800006EB0010B0FBF5F000F0F002B1FB3B
:10161000F5F002EB0012B1FBF5F06FF01803584340
:1016200001EB800006EB0010B0FBF5F000F00F00BE
:1016300021681044886070BDA0FB010192185B41D5
:10164000FEF7BEFD0146B0FBF5F00201B1FBF5F07F
:101650006FF01803584301EB800006EBC000B0FBAD
:10166000F5F000F0F80002EB4002B1FBF5F0584352
:1016700001EB800006EBC000B0FBF5F000F00700C6
:10168000D6E700000010014000140140FEE7090702
:10169000090E002804DB00F1E02080F800147047F8
:1016A00000F00F0000F1E02080F8141D704702E008
:1016B00008C8121F08C1002AFAD1704770470020DD
:1016C00001E001C1121F002AFBD17047012131EE58
:1016D000601A814070EE600A491E00EE101AB8EEE2
:1016E000C00A20EE800AC0EE010ABDEEE00A10EE4C
:1016F000100A70472DED028B82B0FFF7E7FAFFF773
:10170000EDFEFFF7B3FEFFF78FFEFFF7C5FE40F2D9
:1017100033200021431E821ECDE900010E48FEF752
:10172000CBFD0D48FEF7E1FD08230C4A01210A48D4
:10173000FEF7E6FD9FED0A8AF7EE001AF0EE000ACA
:10174000B0EE480A0121B0EE402AB0EE401A02483D
:1017500000F008F8F0E7000050000020180000201A
:10176000000000002DE9FC41B0EE413AF0EE602AA5
:1017700005460C461020B2EE091AFAEE090AFFF7E8
:10178000A5FF07460C20B3EE0E1AFBEE0E0AB0EED4
:10179000620AFFF79BFFDFED212A06460C209FED32
:1017A0001E1AF0EE620AB0EE430AFFF78FFF0346FF
:1017B0000C20B1EE041AF0EE620AB0EE610AFFF7F7
:1017C00085FF02460C20B2EE041AFAEE040AB0EECF
:1017D000420AFFF77BFF390A8DF800108DF801707F
:1017E00031098DF80210310141EA13218DF80310FF
:1017F0008DF8043011098DF80510110141EA10210E
:101800008DF806108DF8070008236A462146284601
:10181000FEF776FDBDE8FC810000FA430000000001
:1018200001EE100A70EEC00A0120B8EEC11A88401D
:10183000401E21EE201A00EE900AF8EEE01AC1EEEA
:10184000210A30EE800A704700000000000000000E
:101850000102030406070809000000000102030456
:10186000801800080000002038000000AE160008B4
:10187000B81800083800002088040000BE160008D0
:101880000000000000000000000000000000000058
:101890000000000000000000FFFFFFFFFFFFFFFC53
:1018A0000000000000000000010000001000000027
:0818B000000000000024F40018
:040000050800018965
:00000001FF
