:020000040800F2
:10000000800B0020790200085F4600087940000854
:100010005D4600083107000889560008000000000E
:10002000000000000000000000000000C9490008B6
:10003000EF0700080000000091470008394A000857
:10004000930200089302000893020008930200083C
:10005000930200089302000893020008930200082C
:100060009302000893020008930200083507000875
:100070004107000893020008930200089302000859
:100080009302000800000000930200089302000899
:1000900093020008930200089302000893020008EC
:1000A00093020008930200089302000893020008DC
:1000B00093020008930200089302000893020008CC
:1000C00093020008930200089302000893020008BC
:1000D00093020008930200087D560008930200086E
:1000E000930200089302000893020008930200089C
:1000F0009302000893020008930200080000000029
:1001000000000000930200080000000093020008B5
:100110009302000800000000930200089302000808
:10012000930200089302000893020008930200085B
:100130009302000800000000000000009302000885
:100140009302000893020008000000000000000075
:10015000000000000000000000000000000000009F
:1001600000000000000000000000000093020008F2
:1001700093020008000000000000000000000000E2
:1001800000000000930200080000000000000000D2
:10019000000000000000000000000000000000005F
:1001A0000000000000000000930200089302000815
:1001B0009302000893020008930200080000000068
:1001C0000000000093020008000000000000000092
:1001D000930200089302000800F002F800F03CF8D7
:1001E0000AA090E8000C82448344AAF10107DA4592
:1001F00001D100F031F8AFF2090EBAE80F0013F0A8
:10020000010F18BFFB1A43F00103184784F40000E4
:10021000A4F40000103A24BF78C878C1FAD8520775
:1002200024BF30C830C144BF04680C607047000070
:100230000023002400250026103A28BF78C1FBD8EF
:10024000520728BF30C148BF0B6070471FB507F089
:1002500048F91FBD10B510BD00F07CF91146FFF73D
:10026000F5FF06F0B5F900F09AF903B4FFF7F2FFD5
:1002700003BC00F09DF90000094880470948004789
:10028000FEE7FEE7FEE7FEE7FEE7FEE7FEE7FEE746
:10029000FEE7FEE704480549054A064B70470000A3
:1002A000A14A0008D901000880050020800B002029
:1002B000800700208007002053EA020C00F06980CC
:1002C0002DE9F04B4FF00006002B1FBFB3FA83F56A
:1002D00003FA05F424FA05F65E4012BF1643B2FA9B
:1002E00082F502FA05F4C5F120051EBF22FA05FCCD
:1002F00044EA0C04203556EA044C4FEA144418BF73
:10030000641C4FF000084FF00009904271EB030CA1
:1003100039D3002919BFB1FA81F701FA07F6B0FA0B
:1003200080F700FA07F6C7F120071EBF20FA07FC86
:1003300046EA0C062037B6FBF4FCA7EB0507103F96
:1003400007F01F0BCBF120060CFA0BFB2CFA06F67C
:1003500044BFB3460026202FA4BF5E464FF0000BDB
:100360005BEA060C08BF4FF0010B19EB0B09ABFB66
:10037000027C48EB0608C01B06FB02CC0BFB03CC3F
:1003800071EB0C01C1E70B46024641464846BDE809
:10039000F08B13B54FF000004FF00001AFF3008079
:1003A000BDE81C407047032A40F2308010F0030C77
:1003B00000F0158011F8013BBCF1020F624498BFB8
:1003C00011F801CB00F8013B38BF11F8013BA2F155
:1003D000040298BF00F801CB38BF00F8013B11F0D0
:1003E000030300F02580083AC0F0088051F8043B70
:1003F000083A51F804CBA0E80810F5E7121D5CBFDD
:1004000051F8043B40F8043BAFF30080D20724BF0F
:1004100011F8013B11F801CB48BF11F8012B24BFA3
:1004200000F8013B00F801CB48BF00F8012B7047F2
:1004300010B5203AC0F00B80B1E81850203AA0E87F
:100440001850B1E81850A0E81850BFF4F5AF5FEAB3
:10045000027C24BFB1E81850A0E8185044BF18C966
:1004600018C0BDE810405FEA827C24BF51F8043B0D
:1004700040F8043B08BF7047D20728BF31F8023B61
:1004800048BF11F8012B28BF20F8023B48BF00F8F5
:10049000012B70474FF000020429C0F0128010F0C9
:1004A000030C00F01B80CCF1040CBCF1020F18BF50
:1004B00000F8012BA8BF20F8022BA1EB0C0100F0E3
:1004C0000DB85FEAC17C24BF00F8012B00F8012BB6
:1004D00048BF00F8012B70474FF0000200B51346EB
:1004E00094469646203922BFA0E80C50A0E80C5054
:1004F000B1F12001BFF4F7AF090728BFA0E80C5005
:1005000048BF0CC05DF804EB890028BF40F8042BFD
:1005100008BF704748BF20F8022B11F0804F18BF6A
:1005200000F8012B704770477047704710B500F016
:1005300009F8006810BD10B5044600F003F8046027
:1005400010BD0000004870471C050020004870479F
:100550001C0500207546FFF7F9FFAE460500694609
:10056000534620F00700854618B020B5FFF792FEED
:10057000BDE820404FF000064FF000074FF00008A4
:100580004FF0000B21F00701AC46ACE8C009ACE825
:10059000C009ACE8C009ACE8C0098D46704710B589
:1005A0000446AFF300802046BDE81040FFF75DBE73
:1005B00001491820ABBEFEE726000200704700008C
:1005C00070B50446006881688268C1F3400112F08A
:1005D000010F28D039BB816801F00D01012914D128
:1005E0008168124A1140891C8160216803200860DB
:1005F00001F084FD054612E001F080FD401B022859
:100600000DD920688068C00709D0E06D40F0100067
:10061000E065206E40F001002066012070BD20687A
:100620008068C007E8D1002070BD0000C0FFFF7FD8
:10063000F8B50446002000902068816811F0010F91
:1006400041D18168214A11422ED18168D543294088
:10065000491C81601E48806800F0E07000020DD5E2
:100660001C481D490068B0FBF1F0401C00EB400045
:10067000800000E0401E00900028FBD101F03EFD0C
:1006800006461BE0816811F0010F03D18168294003
:10069000491C816001F032FD801B02280ED92068C0
:1006A0000068C043C00709D0E06D40F01000E0656D
:1006B000206E40F0010020660120F8BD206801682E
:1006C000C943C907DED10020F8BD00003F0000800B
:1006D0000003005018010020400D03002DE9F041F7
:1006E000074647F6FF7415460E46204605F032FED3
:1006F00044EAC03081B22B463246384604F079F8DD
:10070000C0F30E0400EE104A05460848B8EE400A51
:1007100080ED000A204605F01DFEB0EBD53F02D16A
:100720002046BDE8F0814FF6FF70FAE74000002058
:10073000FEE70000014801F024B900005C0400203D
:10074000014801F01EB90000BC0400200D490268F8
:100750008A4201D20C4901E00B492031D2B2142364
:10076000083AB2FBF3F2436C02F01F0223F00303DA
:100770001944816404498031C164012191400165BB
:100780007047000008040240000802400179074A4F
:1007900002EB81024265054A4432491E826501F03E
:1007A0001F0201219140C16570470000FC08024012
:1007B00030B5D0E913456560446D14B1D0E91645F4
:1007C000656090F8444004F01F050124AC40056CBE
:1007D0006C60046863608368102B036803D09960C1
:1007E0000068C26030BD9A600068C16030BD70476B
:1007F0000648016841F080710160054800214160B0
:10080000016841F00101016070470000FCED00E06B
:10081000001000E072B6FEE770B5044601F06EFC11
:1008200005462068016941F4803101614FF4FA7690
:100830000BE000BF01F062FC401BB04205D9606BC9
:1008400040F080006063012070BD20680069C00333
:10085000F0D40020606370BD10B5044600F005F8C8
:100860002046BDE8104000F008B80021C160416199
:100870000182202180F833107047002181610162DC
:100880008183202180F832107047000070B52DED73
:100890000C8BB0EE409AB5EEC09AF1EE10FA05D28C
:1008A0009FED6F0AB1EE499A70EE800A9FED6D0AD6
:1008B00030EE800A05F0AEFCF0EE408A9FED6A0A49
:1008C00028EE800A10EE100A06F09AFD41EC100B9B
:1008D00004F006FF9FED65BB51EC100B53EC1B2B96
:1008E00006F01AF806F024FA624D0446686A06F02B
:1008F00087FD41EC1D0B19EE100A06F081FD00EE9C
:10090000904A41EC1A0BF8EEE00A9FED5B1AB0EE4C
:10091000680A10EE810A10EE100A06F071FD41EC33
:10092000100B04F0EDFF9FED55CB51EC100B53EC89
:100930001C2B06F093FA53EC1A2B06F08FFA53ECAB
:100940001D2B06F08BFA05F0B5FF08EE100A686A59
:1009500006F056FD41EC1A0B19EE100A06F050FD98
:1009600041EC190B204606F012FA53EC1B2B06F053
:100970005DFC9FED441B53EC112B06F06FFA41EC2C
:100980001B0B18EE900A06F03BFD53EC1B2B06F0F8
:100990004DFC41EC100B04F0B3FF53EC1C2B51EC5D
:1009A000100B06F05BFA53EC192B06F057FA53ECD8
:1009B0001A2B06F053FA05F07DFFB7EE000A01EEA0
:1009C000100A30EE480AB6EE002A072C70EE411AE3
:1009D0003AD2DFE804F039040B161D27300038EE58
:1009E000010AF0EE410A01EE820A05E0B0EE480A83
:1009F00078EE010A01EE820A21EE821A41EE820AA5
:100A000028E078EE010A21EE820A41EE820A06E031
:100A1000F0EE480A21EE820A41EE820A08E001EE79
:100A2000821A17E0B0EE410A61EE820A01EE820AF4
:100A300038EE011AF3E738EE010A61EE820AB0EEF1
:100A4000481A01EE820AEAE79FED100AF0EE400A2A
:100A5000B0EE401ABDEC0C8BBDE8704005F0C8BE8E
:100A6000DB0F4940DB0FC93F4576743F00000000B3
:100A70000000F03F18000020920A863F000000E0CE
:100A80007AB6FB3F0000004052C1F03F000000007A
:100A900010B54FF480622DED028BB0EE408A1B49F9
:100AA0001B48FFF71BFE00B200EE100ADFED1A0A2A
:100AB000184CB8EEC00A208020EE200ADFED170A9D
:100AC00020EE200A05F094FBB4F90000F0EE408A15
:100AD00000EE100AB8EEC00A05F04CFD94ED031AC2
:100AE000F0EE400AB0EE480AB8EEC11A04F19400E4
:100AF00011EE200A03F0B4FD84ED060AF0EE680A58
:100B0000BDEC028BBDE81040FFF7C0BE00040048FA
:100B1000CC02002018000020DB0FC9400000803804
:100B2000F8B500260446009690F858000D460128B6
:100B30000BD0012084F858002046FFF741FD01004A
:100B4000E06D04D040F010002AE00220F8BD20F44F
:100B5000885040F00200E06520688268134B1A401C
:100B600005F080431A4342F000428260104A206838
:100B70000EE0009B5B1C0093934209D3E06D20F0D4
:100B8000020040F01000E06584F858600120F8BDD4
:100B90008368DB0FEDD1E06D20F0020040F0010032
:100BA000E06584F858600846F8BD0000C0FFFF3FCC
:100BB00002DE04002DE9F84F4FF000080446CDF89E
:100BC00000800D4694F85820DFF8EC9361694746A1
:100BD0004046012A0AD00126F84A84F8586041B1FB
:100BE000296A012905D0A36EEBB129E00220BDE8F6
:100BF000F88F6868092838D1A96A4FF4785041B154
:100C00002B6801F07C0100EA53400843E96A08437D
:100C100002E0296800EA51402168CB6C134003438D
:100C2000CB64606621E0C4E91971A96A286A31B110
:100C300001F07C01401E0843E96A084300E0401EC1
:100C400029682B79C1F3846103F01F0399400143A4
:100C5000A06E401EA066636E43EA0103636604D182
:100C60002068C16C11401943C164206803F015FA73
:100C700058B995F8250098B12068C16895F82620E4
:100C800021F4401141EA4251C160206803F00DFA9D
:100C90008246206803F001FA5AEA00000DD0FBE01A
:100CA00095F8260095F82410400540EA0151206887
:100CB000C26822F440121143E6E7A86A30B1E86A3C
:100CC00020B195F8250001285ED003E095F82500B5
:100CD000012804D02068C16821F0007103E0206879
:100CE000C16841F00071C16095F83000012852D010
:100CF0002068016921F002010161AA682968206861
:100D0000B2F1004F38D003F0E3F92068416921F0D7
:100D10000041416120686969C268C2F3C1025200A2
:100D200091402A69042A44D000EB82002B68026EAD
:100D3000DFF88CC203F0F84302EA0C020B431A43BB
:100D400042F00041016620682A69A96900EB82002F
:100D5000026E22F080720A430266297F22682869A7
:100D6000012923D05FF0000102EB8000026E22F027
:100D700000720A4302668FE0002203F0A9F920689E
:100D8000416941F00041C4E7E06D40F02000E065BA
:100D90004FF00108A8E7D5E90D100143206802696A
:100DA00022F4FF7242F002021143A5E74FF00071F6
:100DB000DAE7002103F067F9400320684FF00001F3
:100DC00072D003F060F990FAA0F0B0FA80F12868D0
:100DD00042036ED090FAA0F0B0FA80F0814204D1C4
:100DE00000221146206803F08AF90121206803F0EF
:100DF0004AF9400320684FF001015DD003F043F948
:100E000090FAA0F0B0FA80F12868420359D090FA25
:100E1000A0F0B0FA80F0814204D1002201212068C4
:100E200003F06DF90221206803F02DF940032068DA
:100E30004FF0020148D003F026F990FAA0F0B0FA82
:100E400080F12868420344D090FAA0F0B0FA80F014
:100E5000814204D100220221206803F050F90321CD
:100E6000206803F010F9400320684FF0030133D0ED
:100E700003F009F990FAA0F0B0FA80F12868420373
:100E80002FD090FAA0F0B0FA80F0814204D1002275
:100E90000321206803F033F92068816811F0010F05
:100EA00022D0B6E000E004E003F0EDF8C0F3846186
:100EB0008DE7C0F3846091E703F0E5F8C0F3846147
:100EC000A2E7C0F38460A6E703F0DDF8C0F3846115
:100ED000B7E7C0F38460BBE703F0D5F8C0F38461E3
:100EE000CCE7C0F38460D0E72A7B296850F8B03F94
:100EF000C1F3120C23EA0C0302F0180C314A22FA57
:100F00000CF20A4013430360E96849457ED1286822
:100F100041031CD090FAA0F1B1FA81F1491C01F013
:100F20001F0109294FEA403132D8002912D000BFF1
:100F300090FAA0F1B1FA81F101F1010101F01F0174
:100F400006FA01F609D100BFC0F3846109E0C0F3DD
:100F50008461E3E7C0F38461EEE790FAA0F1B1FAAF
:100F600081F101F1010101F01F0146EA816102D125
:100F7000C0F3846003E090FAA0F0B0FA80F000F1D2
:100F8000010000F01F0000EB400041EA00513AE090
:100F900000290ED090FAA0F1B1FA81F101F101011E
:100FA00001F01F0106FA01F60ED100BFC0F3846103
:100FB0000EE0C0F38461F1E700007F4000401004C0
:100FC00000F0FF03FFFF070090FAA0F1B1FA81F1F2
:100FD00001F1010101F01F0146EA816102D1C0F374
:100FE000846003E090FAA0F0B0FA80F000F1010014
:100FF00000F01F002B4A00EB400002EB005041EADA
:10100000000141F00071AA68206800E001E003F0EF
:101010005FF825482A68024240D024488168244B62
:1010200001F0E0719A4202D0224B9A421BD10B028E
:1010300019D42268B2F1A04F30D1826841F4000186
:1010400022F0E0720A4382601B481C490068B0FB32
:10105000F1F0801C00EB4000800000E0401E00909A
:101060000028FBD11AE0164D164BAA4207D1CD013C
:1010700005D422689A4211D041F0807109E0124DE6
:10108000AA420BD14A0209D422689A4206D041F4FE
:101090008001826822F0E0720A43826084F858700E
:1010A0004046A4E5000020FE000008800003005038
:1010B000000021C31000C09018010020400D030063
:1010C000000052C700010050000084CB2DE9F04120
:1010D00004463548806800F01F05206802F0DDFFF7
:1010E00008BB2168C868C96C00F0004011F4C07FDB
:1010F00000D190B194F85800012814D0012084F850
:1011000058002046FFF794FA02004FF000030CD07D
:1011100084F858301046BDE8F081E06D40F02000C2
:10112000E0650120F7E70220F5E7E06DC00504D592
:10113000206E20F00800206600E02366E06D42F299
:101140000101884340F48050E065184F21684FF05A
:10115000A046B94201D1304600E00846884200D09E
:101160001DB9E06D20F48010E0656020086084F80F
:1011700058302068B84200D00646864209D045B1B2
:10118000062D06D0072D04D0E06D40F48010E065F8
:10119000C0E7C16811F0007FBCD18168044B1940E1
:1011A00041F008018160B5E70003005000010050E4
:1011B000C0FFFF7F2DE9F84F00270446009790F805
:1011C0005800DFF8E0930D46B846012811D00126FB
:1011D00084F85860206802F064FF60B1E06D40F070
:1011E0002000E0655FF0010784F858803846BDE8CC
:1011F000F88F0220FBE7D5E900210C23206803EAE1
:1012000091131844036B01F01F014FF01F0C0CFAEF
:1012100001FCC2F3846223EA0C038A401343036394
:10122000206802F03EFF8246206802F032FF5AEA50
:1012300000003CD1AA6829682068B2F1004F37D07D
:1012400002F037FF2068416921F0004141612068C8
:101250006969C268C2F3C102520091402A69042A36
:1012600031D000EB82002B68026EDFF83CC303F044
:10127000F84302EA0C020B431A4342F000410166B4
:1012800020682A69A96900EB8200026E22F0807250
:101290000A430266297F22682869012910D00021AB
:1012A00002EB8000026E22F000720A4302667DE0CB
:1012B000002202F0FEFE2068416941F00041C5E7CE
:1012C0004FF00071ECE7002102F0D7FE40032068E8
:1012D0004FF0000172D002F0D0FE90FAA0F0B0FA08
:1012E00080F1286842036ED090FAA0F0B0FA80F046
:1012F000814204D100221146206802F0F8FE01214B
:10130000206802F0BAFE400320684FF001015DD072
:1013100002F0B3FE90FAA0F0B0FA80F12868420320
:1013200059D090FAA0F0B0FA80F0814204D10022A6
:101330000121206802F0DBFE0221206802F09DFE00
:10134000400320684FF0020148D002F096FE90FA68
:10135000A0F0B0FA80F12868420344D090FAA0F0DF
:10136000B0FA80F0814204D100220221206802F00C
:10137000BEFE0321206802F080FE400320684FF08B
:10138000030133D002F079FE90FAA0F0B0FA80F1B8
:10139000286842032FD090FAA0F0B0FA80F0814282
:1013A00004D100220321206802F0A1FE2068816898
:1013B00011F0010F22D0ACE000E004E002F05DFE8D
:1013C000C0F384618DE7C0F3846091E702F055FEBD
:1013D000C0F38461A2E7C0F38460A6E702F04DFE8B
:1013E000C0F38461B7E7C0F38460BBE702F045FE59
:1013F000C0F38461CCE7C0F38460D0E72A7B29681E
:1014000050F8B03FC1F3120C23EA0C0302F0180CA1
:10141000664A22FA0CF20A4013430360E968494520
:1014200077D1286841031CD090FAA0F1B1FA81F17C
:10143000491C01F01F0109294FEA403132D8002927
:1014400012D000BF90FAA0F1B1FA81F101F10101CF
:1014500001F01F0106FA01F609D100BFC0F3846153
:1014600009E0C0F38461E3E7C0F38461EEE790FA3A
:10147000A0F1B1FA81F101F1010101F01F0146EA89
:10148000816102D1C0F3846003E090FAA0F0B0FA69
:1014900080F000F1010000F01F0000EB400041EA85
:1014A000005132E000290ED090FAA0F1B1FA81F19A
:1014B00001F1010101F01F0106FA01F606D100BF9A
:1014C000C0F3846106E0C0F38461F1E790FAA0F113
:1014D000B1FA81F101F1010101F01F0146EA8161D8
:1014E00002D1C0F3846003E090FAA0F0B0FA80F07B
:1014F00000F1010000F01F002D4A00EB400002EB5C
:10150000005041EA000141F00071AA68206802F031
:10151000D0FD28482A6802423FF466AE264881681A
:10152000264B01F0E0719A4202D0254B9A421CD121
:101530000B021AD42268B2F1A04F7FF455AE826834
:1015400041F4000122F0E0720A4382601D481E4906
:101550000068B0FBF1F0401C00EB4000800000E0B0
:10156000401E00900028FBD13EE6184D184BAA42C1
:1015700007D1CD0105D422689A42F5D041F080719F
:1015800009E0144DAA42EFD14A02EDD422689A42F2
:10159000EAD041F48001826822F0E0720A4382605E
:1015A00022E6000000007F4000F0FF03FFFF07007D
:1015B000000020FE0000088000030050000021C34E
:1015C0001000C09018010020400D0300000052C719
:1015D00000010050000084CBF8B54FF00005040076
:1015E0002E46009502D0E06D10B107E00120F8BD55
:1015F000204600F0EBF8266684F858602068816881
:10160000C1F3407119B18168684A11408160206856
:101610008168C1F3007189B98168654A114041F060
:1016200080518160634864490068B0FBF1F040007C
:10163000801C00E0401E00900028FBD120688168DB
:10164000C1F3007141B9E16D41F01001E165216E16
:1016500041F001012166012502F023FDE16DC9067B
:1016600000D430B1E06D40F01000E065012528465F
:10167000F8BDE06D20F4807040F00200E065206865
:10168000806810F0010F11D14FF0A04080684B49E5
:1016900000F00100896801F00101084306D14848C3
:1016A0006168826822F47C120A438260E168E06B20
:1016B000627F0843A16841EA4231084394F824104C
:1016C00040EA0140012904D1218D3E4A02EB41410B
:1016D0000843E16A29B101F47871226B014342EABF
:1016E00001002268D168384B19400143D16020685D
:1016F0000169626B21F0406111430161206802F0D1
:10170000C8FC70BB207F94F83810800340EA410287
:101710002168C86844F2020398431043C8602069F6
:101720000028206801690AD041F4803101612068F5
:1017300050F8C01F22696FF30D01114307E021F437
:1017400080310161206850F8C01F6FF30D01016006
:1017500094F8400001280CD02068016921F00101B3
:101760000161606901282068016B21F00F0111D02F
:1017700013E0D4E911010843D4E9131211430843DB
:1017800021680A6940F2FC739A43104340F001005B
:101790000861E6E7226A521E11430163E06D20F002
:1017A000020040F00100E06561E70000C0FFFF5F5C
:1017B000C0FFFF7F18010020400D03000001005012
:1017C000000300500000FEFF0740F0FF10B598B086
:1017D0000446142111A8FEF77FFE44216846FEF757
:1017E0007BFE15492068884224D1C0010090800307
:1017F0000F90684600F098FE08B1FFF70BF80F480D
:10180000C16C41F40051C164C16C01F400511691E6
:10181000C16C41F00101C164C06C11A900F001006C
:101820001690032011901290002013904FF09040DA
:1018300000F03AFB18B010BD00010050001002404B
:1018400070B5040004D094F82100002510B106E022
:10185000012070BD84F82050204600F00BF865622E
:101860006560A560E56025610120656184F821005F
:10187000002070BD08B500680649884208D10648B6
:10188000816C41F008018164806C00F008000090D8
:1018900008BD0000000C02400010024010B590F896
:1018A000253000210122022B03D00421C163012134
:1018B00022E003681C6824F00E041C60836C1C6822
:1018C00024F480741C6003681C6824F001041C600C
:1018D00090F84430046C03F01F0302FA03F36360D2
:1018E000D0E913345C60436D33B11C6824F4807418
:1018F0001C60D0E916345C6080F82520002280F856
:101900002420084610BD70B590F825200024012140
:101910002346022A07D00422C26380F8251080F8EB
:101920002430012429E00268156825F00E051560B1
:101930000268156825F001051560826C156825F4AC
:101940008075156090F84420056C02F01F0201FAC2
:1019500002F26A60D0E913255560426D32B1156814
:1019600025F480751560D0E91625556080F825109E
:1019700080F82430816B01B18847204670BDC06B70
:101980007047F0B4016C0C6801680D6890F8442051
:1019900002F01F06042202FA06F3234211D06B075D
:1019A0000FD50B689B0603D40B6823F004030B6070
:1019B00090F8441001F01F018A40016C4A60016BED
:1019C0001DE0022303FA06F727424FF0000C4FF008
:1019D000010218D0AF0716D50C68A40605D40C6810
:1019E00024F00A040C6080F8252090F8441001F0DF
:1019F0001F018B40016C4B6080F824C0C16A002934
:101A00001AD0F0BC08470823B340234214D02B0758
:101A100012D50B6823F00E030B6090F84410036C92
:101A200001F01F0102FA01F15960C26380F825201C
:101A300080F824C0416BE2E7F0BC704770B5040049
:101A40000CD02B4A21681420914209D2294A0A4419
:101A5000B2FBF0F08000606427480AE0012070BD0E
:101A6000234A52420A44B2FBF0F0800060642048EE
:101A700008382064022084F825000A6847F6F070D0
:101A80008243D4E902031843D4E904352B431843B5
:101A9000A3691843E3691843236A18431043086095
:101AA0002046FEF753FEA0680025B0F5804F00D118
:101AB0006560A16C20790860D4E913014160606819
:101AC000401E032808D82046FEF760FE606D0560C2
:101AD000D4E91601416002E06565A565E565E56349
:101AE000012084F8250084F82450002070BD0000F7
:101AF00008040240F8FFFDBF0000024070B5044634
:101B000090F82400002501280CD0012084F824003E
:101B100094F825600020012E06D084F824000225C8
:101B2000284670BD022070BD022684F82560E0635F
:101B30002068066826F0010606602046FEF738FE9B
:101B4000206B00282068016802D041F00E0106E0F9
:101B500021F0040101602068016841F00A01016080
:101B6000A06C0168C90303D5016841F4807101606C
:101B7000606D18B1016841F48071016020680168EE
:101B800041F001010160CBE770B5044600F0B6FA00
:101B90000546601C02D004484068044400F0AEFAD8
:101BA000401BA042FAD370BD0C0100202DE9F0418A
:101BB000040006D0DFF8E88194F85C00002518B135
:101BC00007E00120BDE8F08184F85D50204600F078
:101BD000EFF82068816921F01001816100F08EFA30
:101BE0000646032705E000BF00F088FA801B0A289C
:101BF00011D8206880690007F6D42068816941F017
:101C00000101816100F07AFA06460BE000F076FAF5
:101C1000801B0A2806D9206E40F00100206684F857
:101C20005C70CEE720688069C007EFD020688169CA
:101C300041F0020181612168414502D15949606842
:101C40000860207C01282068816937D041F040017C
:101C50008161607C01282068816932D021F4804153
:101C60008161A07C0128206881692DD041F48051D8
:101C7000816120688169A26821F44071114381610A
:101C80002068816921F0A40181612068016921F047
:101C900010010161E068012819D010B302281BD09F
:101CA0002068816941F0800181612068016941F00B
:101CB00010010161E06803280ED012E021F040011C
:101CC000C6E741F48041CBE721F48051D0E720689A
:101CD000816941F0040103E02068816941F020013D
:101CE0008161207EE26940066FF0FF0101EB022274
:101CF000A0F100701043226AA38A521E10430A0208
:101D000002EB034318432368D861A068B0F5407F15
:101D100010D1D4E90A0301EB0321401E0843216BD3
:101D2000131303EB01110843A18C02EB014108439B
:101D30002168C860206850F8C01FE26B1143016041
:101D400019482064216851F8802FA38E22F4F812DC
:101D500042EA03420A60144970316164216851F813
:101D6000802F94F8383022F0706242EA03620A60F1
:101D70000D49B031A1640D49E1640C49D8312165A8
:101D80000A49F031616500F5547120C08842FCD3E6
:101D9000A5652566012084F85C00002012E700009C
:101DA000006400400065004000A4004088A5004099
:101DB00010B598B00446142111A8FEF78DFB4421FC
:101DC0006846FEF789FB17492068884228D18014AD
:101DD000009040030C90684600F0A6FB08B1FEF7A7
:101DE00019FD1148816D41F000718165816D01F02F
:101DF00000711691C16C41F00101C164C06C11A960
:101E000000F0010016904FF4C05011900220129083
:101E100000201390149009201590C00600F044F89B
:101E200018B010BD006400400010024070B50400FE
:101E300004D094F83100002510B106E0012070BDF7
:101E400084F83050204600F01BF820466560FEF70D
:101E500003FD2046FEF7E0FC012808D06563202042
:101E600084F831005FF0000084F8305070BD606B82
:101E700040F010006063A02084F831000120F3E7F7
:101E800008B500680649884208D10648816C41F0CF
:101E900010018164806C00F01000009008BD00000B
:101EA00000140240001002402DE9F04FDFF82092AC
:101EB000002301260324A9F1040B85B00F2709F1A3
:101EC000040AABF1040EFAE006FA03F52A407CD0CE
:101ED00091F804C00CF0030CBCF1010F02D0BCF16E
:101EE000020F26D1D0F808C0CDF800C04FEA430C4D
:101EF00004FA0CF8CDF810C0DDF800C02CEA080C8C
:101F0000CDF800C0D1F80C80DDF810C008FA0CF84C
:101F1000DDF800C048EA0C08C0F80880D0F804C01A
:101F20002CEA050C0D79C5F300159D4045EA0C051A
:101F300045600D79ED43AD070ED0C5684FEA430803
:101F400004FA08FC25EA0C05D1F808C00CFA08FCD4
:101F50004CEA050CC0F80CC00D7905F00305022D04
:101F600016D1DD0800EB850CCDF808C0DCF8208028
:101F70005D074FEAD56C07FA0CF528EA05080D69EC
:101F800005FA0CF5DDF808C045EA0805CCF8205044
:101F900005684FEA430CCDF808C004FA0CFC25EAAA
:101FA0000C0591F804C00CF00308DDF808C008FA2D
:101FB0000CF848EA0508C0F800804D6815F4403F69
:101FC0007CD0444DD5F860C000E077E04CF0010CC7
:101FD000C5F860C02D6E23F0030C05F001050095D7
:101FE0003D4D65440295AD684FEA837C4FEA1C780D
:101FF00007FA08FC25EA0C05B0F1904F06D0DFF88F
:10200000DCC0604505D14FF0010C20E04FF0000C22
:102010001DE0DFF8CCC0604502D14FF0020C16E0A5
:10202000DFF8C0C0604502D14FF0030C0FE0DFF8CD
:10203000B8C0604502D14FF0040C08E0DFF8ACC036
:10204000604502D14FF0050C01E04FF0060C0CFA90
:1020500008FC4CEA050C029DC5F808C0D9F80050F0
:10206000CC46D1F8048095435FEAC82800D51543D3
:10207000CCF80050DAF80050D446D1F804809543EB
:102080005FEA882800D51543CCF80050DBF80050F3
:10209000DC46D1F8048095435FEA883800D51543C3
:1020A000CCF80050DEF80050F446D1F80480954397
:1020B0005FEAC83800D51543CCF800505B1C0A68AD
:1020C00032FA03F57FF400AF05B0BDE8F08F0000F1
:1020D00008040140001002400000014000040048D4
:1020E00000080048000C0048001000480014004898
:1020F0000AB18161704781627047000001488068C1
:10210000704700000C01002090F84120202A24D1C3
:1021100090F84020012A20D0012280F8402024227B
:1021200080F841200268136823F0010313600268FD
:10213000136823F480531360026813680B43136021
:1021400001680A6842F001020A60202180F841100B
:10215000002180F84010084670470220704790F830
:102160004120202A22D190F84020012A1ED00122AD
:1021700080F84020242280F841200268136823F070
:10218000010313600268136823F4706343EA0121BA
:10219000116001680A6842F001020A60202180F89B
:1021A0004110002180F84010084670470220704717
:1021B000074908B50A6E42F001020A66096E01F08D
:1021C0000101009103494A6802434A6008BD0000CA
:1021D000001002400000014070B5040004D094F8E3
:1021E0004100002510B106E0012070BD84F8405088
:1021F000204600F04FF8242084F841002068016850
:1022000021F0010101606068216820F070600861C0
:102210002068816821F400418160E0680128A0689D
:1022200030D040F4044021688860E06802282068CB
:1022300041682AD021F40061416020684168144A55
:10224000114341602068C16821F40041C160D4E9B4
:1022500004010843A16940EA01202168C860D4E96B
:1022600007010843216808602068016841F0010106
:1022700001606564202084F84100256384F84250A1
:10228000002070BD40F40040CDE741F40061D3E789
:1022900000800002F0B597B00446142111A8FEF7A3
:1022A0001BF944216846FEF717F920492068884247
:1022B00039D14020002500900695684600F034F999
:1022C00008B1FEF7A7FA1A4CE06C40F00100E06498
:1022D000E06C00F001001690E06C40F00200E06459
:1022E000E06C122600F00200169004274FF4004024
:1022F000CDE91265CDE91457119011A9B006FFF789
:10230000D3FD8020CDE91265CDE91457119011A9B4
:102310000848FFF7C9FDA06D40F40010A065A06D4E
:1023200000F40010169017B0F0BD000000540040FB
:1023300000100240000400480248816842681144CD
:10234000816070470C01002010B50024032000F0CC
:1023500073F80F2000F008F808B1012401E000F044
:1023600025F8204610BD000070B50E4E054600242D
:10237000706898B14FF47A71B1FBF0F00A490968BE
:10238000B1FBF0F000F03DFF40B9102D06D2002265
:102390002946501E00F030F8356000E00124204648
:1023A00070BD00000C010020180100200A4882B016
:1023B000016E41F001010166016E01F00101009121
:1023C000816D41F080518165806D00F080500090FA
:1023D00002B000F0A1B8000000100240002809DBA4
:1023E00000F01F02012191404009800000F1E0202F
:1023F000C0F8001170470000F0B40E4B1B680C468B
:10240000C3F30223C3F10705042D00D90425191DC8
:10241000072901D2002300E0DB1E012606FA05F1A0
:10242000491E214099409E40761E16403143F0BC23
:1024300003F043B90CED00E0064900F0070208681C
:102440004FF6FF03184040EA0220034A1043086099
:10245000704700000CED00E00000FA052B492C4B02
:102460000A6832214A432B4940B1B0F5007F086821
:1024700029D020F4C06040F480602CE00868C0F3EC
:102480004120022804D051F8800F20F4807022E00F
:10249000D1F8800020F48070C1F88000086820F432
:1024A000C06040F400700860B2FBF3F0401C00E034
:1024B000401E4A69520501D50028F9D148694005F6
:1024C0000AD503207047C0F34120022806D051F8F6
:1024D000800F40F48070086000207047D1F88000C1
:1024E00040F48070C1F88000086820F4C06040F4B7
:1024F00000700860B2FBF3F0401C00E0401E4A6927
:102500005205DBD50028F9D1D8E7000018010020DA
:1025100040420F00007000400248816841F4804151
:1025200081607047007000402DE9F8430446006860
:1025300000269D4D00035ED5A86D0027C00008D47D
:10254000A86D40F08050A865A86D012700F080506C
:102550000090DFF85892D9F8001041F48071C9F862
:102560000010FFF7CBFD804606E000BFFFF7C6FD79
:10257000A0EB080002282BD8D9F80000C005F5D53B
:10258000D5F8900010F4407014D0216C814211D025
:10259000D5F89000D5F8901020F4407041F48031C7
:1025A000C5F89010D5F8901021F48031C5F890103E
:1025B000C5F89000C00711D0FFF7A0FD804641F29A
:1025C000883907E0FFF79AFDA0EB0801494501D9DA
:1025D00003260BE0D5F890008007F3D5D5F89000DE
:1025E000216C20F440700843C5F890001FB1A86D1D
:1025F00020F08050A8652078C00707D0D5F8880063
:10260000616820F003000843C5F88800207880073F
:1026100007D5D5F88800A16820F00C000843C5F85C
:1026200088002078400707D5D5F88800E16820F0B9
:1026300030000843C5F888002078000707D5D5F892
:102640008800216920F0C0000843C5F88800207880
:10265000800607D5D5F88800616920F440600843FA
:10266000C5F888002078400607D5D5F88800A1690C
:1026700020F440500843C5F888002078000607D5AC
:10268000D5F88800E16920F440400843C5F8880087
:102690002088C00507D5D5F88800216A20F440308D
:1026A0000843C5F888002088800507D5D5F888003C
:1026B000616A20F440200843C5F88800208840055E
:1026C0000FD5D5F88800A16A20F440100843C5F85A
:1026D0008800A06AB0F5801F03D1E86840F480103C
:1026E000E860208800050FD5D5F88800E16A20F45D
:1026F00040000843C5F88800E06AB0F5800F03D1B8
:10270000E86840F48010E8602088C0040FD5D5F850
:102710008800216B20F040700843C5F88800206BCA
:10272000B0F1807F03D1E86840F48010E860208831
:102730004FF0006180040ED5D5F88800626B20F060
:1027400040601043C5F88800606B884203D1E86898
:1027500040F48010E860208840040ED5D5F8880049
:10276000A26B20F040601043C5F88800A06B88423F
:1027700003D1E86840F48010E860208800040FD599
:10278000D5F88800E16B20F040500843C5F8880078
:10279000E06BB0F1805F03D1E86840F48030E8601E
:1027A0003046BDE8F8830000001002400070004091
:1027B0002DE9F0470E4605004FF0000725D0DFF861
:1027C000AC81D8F8000000F00F00B0420CD2D8F86D
:1027D000001021F00F013143C8F80010D8F80000B4
:1027E00000F00F00B04210D12968614CC80741F2D7
:1027F000883A5AD06868DFF87C91032808D002280C
:1028000020682DD0400500282CDB0120BDE8F08792
:1028100020688001F9D5E06800F00302E068C0F3A9
:102820000310401C032A19D0534A00BFB2FBF0F03A
:10283000E268C2F306225043E268C2F34162521CCE
:102840005200B0FBF2F0484517D9A06810F0F00F25
:102850000CD0880711D5A86840B10EE0474AE5E7DB
:102860008003D0E700F0B6F8484506D9A06820F00C
:10287000F00040F08000A0608027A068696820F028
:1028800003000843A060FFF739FC814606E000BF63
:10289000FFF734FCA0EB090151453AD8A0686968FC
:1028A00000F00C00B0EB810FF2D12868810714D53D
:1028B000400703D5A06840F4E060A06028780007D6
:1028C00005D5A06820F4605040F4E060A060A068E6
:1028D000A96820F0F000084304E0802F03D1A0682D
:1028E00020F0F000A060D8F80010404601F00F0181
:1028F000B14216D9016821F00F0131430160FFF7A1
:10290000FDFB074607E000BFFFF7F8FBC11B514581
:1029100001D903207AE7D8F8000000F00F00B04298
:10292000F2D12878400705D5A068E96820F4E06076
:102930000843A0602878000706D5A068296920F41C
:10294000605040EAC100A06000F044F8A1680C4A61
:10295000C1F30311515C01F01F01C840094908602F
:1029600009480068BDE8F047FFF7FEBC00200240C0
:102970000010024000B4C4040024F40000127A00E5
:1029800058F50008180100200C01002005480649F0
:1029900000688968054AC1F30221515C01F01F01FA
:1029A000C8407047180100200010024068F5000878
:1029B0000548064900688968054AC1F3C221515C8F
:1029C00001F01F01C84070471801002000100240AC
:1029D00068F50008184910B58868C0F381021748E7
:1029E000012A0BD08A684310C2F38102022A06D062
:1029F0008A68C2F38102032A03D0002010BD184662
:102A000010BDCA6802F00304CA68C2F30312521C64
:102A1000032C02D0B0FBF2F001E0B3FBF2F0CA6885
:102A2000C968C2F306225043C1F34161491C490001
:102A3000B0FBF1F010BD0000001002400024F400D3
:102A40002DE9F84304007AD02078F84DC00747D02C
:102A5000A868E96800F00C0001F003010C2802D01E
:102A6000082817D001E0032914D06068B0F5803F32
:102A700017D0B0F5A02F286817D020F48030286038
:102A8000286820F4802028606068E0B1FFF736FBFA
:102A9000064614E02868800322D560680028D2D05A
:102AA0001EE0286840F48030EDE740F48020286084
:102AB000F7E700BFFFF722FB801B642870D8286867
:102AC0008003F7D50CE0FFF719FB064605E000BFD1
:102AD000FFF714FB801B6428F0D828688003F7D424
:102AE000207880074CD5A868E96800F00C0001F058
:102AF00003010C2802D004280DD001E002290AD0DD
:102B0000E068002828682BD040F480702860FFF728
:102B1000F5FA064619E02868400502D5E068002865
:102B200091D06868217C20F0FE4040EA0160686036
:102B3000BF480068FFF718FC002800D120E072E1D0
:102B4000FFF7DCFA801B0228B8D828684005F7D5C3
:102B50006868217C20F0FE4040EA016068600FE078
:102B600020F480702860FFF7C9FA064605E000BF30
:102B7000FFF7C4FA801B0228A0D828684005F7D4C4
:102B80002078000729D560690028D5F8940013D073
:102B900040F00100C5F89400FFF7B0FA064606E0E1
:102BA00090E000BFFFF7AAFA801B022886D8D5F86C
:102BB00094008007F6D510E020F00100C5F89400DD
:102BC000FFF79CFA064604E0FFF798FA801B0228FC
:102BD00078D8D5F894008007F6D42078400761D5DE
:102BE000A86D0026C00008D4A86D40F08050A865EC
:102BF000A86D012600F0805000908E480168C9053C
:102C000011D40168804641F480710160FFF776FAC3
:102C1000074604E0FFF772FAC01B022852D8D8F822
:102C20000000C005F6D5A068012815D00528D5F804
:102C3000900016D020F00100C5F89000D5F8900063
:102C400020F00400C5F89000A06841F28838B8B1BF
:102C5000FFF754FA07460EE0D5F8900040F0010067
:102C6000F0E740F00400C5F89000F5E7FFF746FAFA
:102C7000C11B414526D8D5F890008007F6D50CE059
:102C8000FFF73CFA074604E0FFF738FAC11B41455D
:102C900018D8D5F890008007F6D41EB1A86D20F0A2
:102CA0008050A8652078800629D5A0690028D5F82D
:102CB000980013D040F00100C5F89800FFF71EFA05
:102CC000064606E075E000BFFFF718FA801B0228F1
:102CD0006FD8D5F898008007F6D510E020F00100F5
:102CE000C5F89800FFF70AFA064604E0FFF706FA6F
:102CF000801B02285DD8D5F898008007F6D4E069DB
:102D0000F0B3A968C1F3810103295DD002282868C6
:102D100020F08070286003D0FFF7F0F904464BE004
:102D2000FFF7ECF9064604E0FFF7E8F9801B0228FC
:102D30003FD828688001F7D4F4E908016FF00F024A
:102D400002EB01110843218A5204490802EB415168
:102D5000A26841EA02210843217D4FF07E424908E2
:102D600002EB41610843217B40EAC160E968324AD5
:102D700011400843E860286840F08070286000E057
:102D80005EE0E86840F08070E860FFF7B7F904465D
:102D900005E000BFFFF7B2F9001B022809D8286838
:102DA0008001F7D54CE000BFFFF7A8F9001B02280F
:102DB00002D90320BDE8F88328688001F4D4E868CC
:102DC0001E490840E8603BE00128F3D0E868226A29
:102DD00000F00301914226D1616A00F0F00209017E
:102DE000103991421FD1A26A00F4FE41B1EB022FCB
:102DF00019D194F82C2000F07841B1EBC26F12D1B8
:102E0000218E00F4C00249084905A1F50011914244
:102E100009D194F8341000F0C06049084906A1F1C6
:102E2000007181420CD00120C4E700000010024074
:102E30000C010020007000400C809F01FCFFEEFEA2
:102E40000020B7E770B5040009D0606A002540B1E2
:102E500025616561A56294F85D0040B10CE0012038
:102E600070BD6068B0F5827FF4D0E561F2E784F868
:102E70005C50204600F05CF8022084F85D00206879
:102E8000016821F040010160E1684FF4E062914285
:102E900001D9002001E04FF48050B1F5706F02D0ED
:102EA000914200D0A562A188228901F4827102F4C6
:102EB00004421143227C02F002021143227D02F0FF
:102EC00001021143228B02F400721143227F02F0AF
:102ED0003802114394F8202002F080021143228D21
:102EE00002F40052114322681160A169042202EA2F
:102EF000114194F8242000F4805002F01002114394
:102F000094F8342002F008021143A28902F470629E
:102F100011430143206841602068C16921F40061C8
:102F2000C1612566012084F85D00002070BD0000AD
:102F300010B586B0044614216846FDF7CDFA124953
:102F4000206888421ED11148016E41F4805101660B
:102F5000016E01F480510591C16C41F00101C16421
:102F6000C06C694600F001000590E020009002204E
:102F70000190002002900390052004904FF09040B3
:102F8000FEF792FF06B010BD003001400010024075
:102F90002DE9FF5F1D46934604464FF001090E9E42
:102FA000FFF7ACF8074694F85D006168012806D089
:102FB000B1F5827F39D1A168B1BB042835D1019820
:102FC00000287CD0BBF1000FFBD0002DF9D094F885
:102FD0005C00012829D04FF0010A84F85CA094F825
:102FE0005D00042802D0052084F85D004FF0000841
:102FF000C4F86080C4F840B0A4F84650A4F8445027
:103000000199A163E587A587C4F84C80C4F8508076
:10301000E0684FF4E061884201D8012D09D92068A9
:10302000426822F4805208E0FFE7022004B0BDE8C5
:10303000F09F2068426842F4805242602068026833
:10304000520603D4026842F040020260E0688842FF
:10305000606846D908B1012D3BD1A06B018820687A
:10306000C160A06B801CA063E08F401EE08730E051
:103070002068816889070FD5E18F69B1B9F1010F27
:103080000AD1A16B0988C160A06B801CA063E08F8E
:10309000401EE0874FF0000920688168C90711D001
:1030A000B4F8461071B1C068216C0880206C801C97
:1030B0002064B4F84600401EA4F8460000E09EE0FC
:1030C0004FF00109FFF71AF8C01BB04201D3701C82
:1030D00074D1E08F0028CBD1B4F846000028C7D1C6
:1030E00075E008B1012D6BD1E08F0128A06B08D9E4
:1030F00021680088C860A06B801CA063E08F801EE0
:1031000007E0216800780873A06B401CA063E08F83
:10311000401EE08754E02068816889071AD5E18F56
:10312000C1B1B9F1010F15D1E18F0129A16B07D907
:103130000988C160A06B801CA063E08F801E06E040
:1031400009780173A06B401CA063E08F401EE087EC
:103150004FF0000920688168C90728D0B4F84610EC
:1031600029B3B4F84610012914D9C068216C08802D
:10317000206C801C2064B4F84600801EA4F8460031
:10318000B4F84600012810D82068416841F4805105
:1031900041600AE0007B216C0870206C401C2064B8
:1031A000B4F84600401EA4F846004FF00109FEF7AF
:1031B000A5FFC01BB04202D3701C01D012E08EB13B
:1031C000E08F0028A7D1B4F846000028A3D13A46E2
:1031D0003146204601F0E9FA50B12020206684F8FB
:1031E0005C800CE084F85DA084F85C8003201DE71F
:1031F00084F85DA084F85C80206E0028F7D0012060
:1032000014E710B5401EB0F1807F01D3012010BD3E
:103210004FF0E02460610F21601702F04EFA0020A9
:10322000A06107202061002010BD000030B590F89B
:103230003C20012A42D0012280F83C20CA688B68D9
:1032400022F440721A434B6822F480621A430B68DE
:1032500022F400621A430B6922F480521A434B692C
:1032600022F400521A430B6B22F480421A430B8B58
:1032700022F4702242EA0342CB6922F080521A43C0
:103280000F4D03680024AB4202D00E4DAB4210D16B
:103290000D8D22F4700242EA05520D6A22F080720E
:1032A0002A434D6A22F000722A43C96A22F0005272
:1032B0000A435A6480F83C40002030BD022030BDF3
:1032C000002C0140003401400068416D41F40031A0
:1032D0004165002070470000F0B590F83C20012ABD
:1032E0003AD0012580F83C50022280F83D20036846
:1032F0005A689C68194E1A4FB34201D0BB4204D1A0
:1033000022F4700C4A6842EA0C02DFF858C002EA64
:103310000C02D1F800C04CEA020CC3F804C00268E9
:10332000B2420DD0B2F1804F0AD00F4B9A4207D073
:103330000E4B9A4204D0BA4202D00D4B9A4204D1AD
:10334000896824F080031943916080F83D50002182
:1033500080F83C100846F0BD0220F0BD002C014072
:10336000003401408FFFFFFD0004004000080040D2
:103370000040014010B50446022249B104290ED094
:10338000082913D094F84700012816D0012010BD59
:1033900094F844000128F9D184F844200FE094F80F
:1033A00045000128F2D184F8452008E094F8460051
:1033B0000128EBD184F8462001E084F8472004225C
:1033C000206801F0E0FB2068416C41F40041416459
:1033D0001049206888420ED0B0F1804F0BD00E49C2
:1033E000884208D00D49884205D00D49884202D054
:1033F0000C49884207D181680B4A1140062906D042
:10340000B1F5803F03D0016841F001010160002067
:1034100010BD0000002C01400004004000080040E6
:1034200000340140004001400700010010B50400D5
:1034300003D094F83D0010B107E0012010BD00203A
:1034400084F83C00204600F023F8022084F83D0078
:10345000211D206801F02CFB012084F8480084F82D
:103460003E0084F83F0084F8400084F8410084F86E
:10347000420084F8430084F8440084F8450084F84E
:10348000460084F8470084F83D00002010BD00008D
:1034900008B50068B0F1804F08D10548816D41F052
:1034A00001018165806D00F00100009008BD000001
:1034B0000010024090F83D10012901D00120704712
:1034C000022180F83D1000680F4988420ED0B0F10B
:1034D000804F0BD00D49884208D00D49884205D055
:1034E0000C49884202D00C49884207D181680B4AB6
:1034F0001140062906D0B1F5803F03D0016841F0A4
:103500000101016000207047002C014000040040D0
:103510000008004000340140004001400700010065
:1035200070B5044690F83C000025012814D001260F
:1035300084F83C60022084F83D0022689068364B95
:10354000184020F47F409060086870282ED010DC6E
:1035500010F00F0F03D021E04FF0020070BD4FEAD2
:103560002012072A1AD2DFE802F0525252524A3889
:1035700040002A4BC21A984249D009DCB0F5805F5E
:103580000DD0B0F5005F1CD0B0F1101F06D13EE0A9
:10359000102A3CD0202A3AD0502A38D0012584F86D
:1035A0003D60002084F83C00284670BDCB68D1E91E
:1035B0000121206801F0F4FA2068816841F0770168
:1035C00009E0CB68D1E90121206801F0E9FA20681F
:1035D000816841F480418160E1E7CA6849682068F8
:1035E00001F088FC5021206806E0CA68496820681C
:1035F00001F091FC6021206801F0DCFACFE7CA6895
:103600004968206801F076FC40212068F4E72268D0
:1036100001461046F0E7000088FFCEFF20001000B2
:10362000F0B587B0044614216846FCF755FF1E49E3
:103630002068884236D11D48C16C41F00201C16446
:10364000C16C01F002010591C16C41F00101C1643E
:10365000C06C022500F0010005904FF4C0400090BE
:103660000024CDE901540626114FCDE903466946F1
:103670003846FEF719FCA8030090CDE90154042058
:10368000CDE9034069463846FEF70EFC4FF4E06092
:103690000090CDE90154CDE9034669464FF09040D2
:1036A000FEF702FC07B0F0BD002C01400010024004
:1036B0000004004870B5044690F83C0000260D4612
:1036C00001280BD0012084F83C000C2A4AD007DCEA
:1036D00082B1042A20D0082A06D131E0022070BD30
:1036E000102A53D0142A63D00126002084F83C000D
:1036F000304670BD206801F067FA2068816941F0AA
:10370000080181612068816921F0040181612068DC
:1037100081692A69114311E0206801F0A3FA206849
:10372000816941F4006181612068816921F48061CF
:103730008161206881692A6941EA02218161D4E7B7
:10374000206801F0D7FA2068C16941F00801C16121
:103750002068C16921F00401C1612068C1692A693A
:10376000114311E0206801F00DFB2068C16941F4AC
:103770000061C1612068C16921F48061C161206874
:10378000C1692A6941EA0221C161AEE7206801F0FE
:1037900041FB2068016D41F0080101652068016D61
:1037A00021F0040101652068016D2A69114311E0CF
:1037B000206801F067FB2068016D41F4006101653C
:1037C0002068016D21F4806101652068016D2A691E
:1037D00041EA0221016588E710B5040003D094F89E
:1037E0003D0010B107E0012010BD002084F83C002E
:1037F000204600F023F8022084F83D00211D2068B7
:1038000001F056F9012084F8480084F83E0084F85D
:103810003F0084F8400084F8410084F8420084F8B6
:10382000430084F8440084F8450084F8460084F896
:10383000470084F83D00002010BD000008B5006876
:103840000649884208D10648016E41F400610166CC
:10385000006E00F40060009008BD0000002C0140E4
:103860000010024030B50446022269B1042912D08A
:10387000082917D00C291CD0102921D094F8430016
:10388000012824D0012030BD94F83E000128F9D150
:1038900084F83E201DE094F83F000128F2D184F81E
:1038A0003F2016E094F840000128EBD184F8402036
:1038B0000FE094F841000128E4D184F8412008E0A9
:1038C00094F842000128DDD184F8422001E084F818
:1038D00043200122206801F049F9194B2068194959
:1038E000194A984209D0884207D0904205D0174D16
:1038F000A84202D0164DA84203D1456C45F40045BC
:103900004564206898420CD0B0F1804F09D0114B2B
:10391000984206D0104B984203D0884201D0904282
:1039200007D181680D4A1140062906D0B1F5803FC4
:1039300003D0016841F001010160002030BD0000AA
:10394000002C01400034014000400140004401408F
:10395000004801400004004000080040070001004A
:1039600090F88410012918D0012180F884102421B6
:10397000C0F8881001680A680B6823F001030B6027
:1039800022F0005100224266036819602021C0F82D
:10399000881080F88420104670470220704710B5C8
:1039A0000446D0F88C00202801D0022010BD61B15F
:1039B0005AB10120E06600202067204601F0C0FDDA
:1039C0000028F3D1E16E012901D0012010BD226849
:1039D00010211162226852E8001F41F0100142E8F4
:1039E0000013002BF6D110BD10B50C460D498842CE
:1039F00016D1084600F06DF80B480121224644809C
:103A000001700A490A48FCF7CEFC10210748FCF770
:103A100041FDBDE81040102204490248FFF7BFBF36
:103A200010BD0000C8030020080100201C01002078
:103A30002C010020704770B5044690F884000128DE
:103A40001DD0012084F884002420C4F88800206858
:103A50000568026822F0010202602068826822F094
:103A600060620A438260204601F068FA20680560BF
:103A70002020C4F88800002084F8840070BD022053
:103A800070BD70B5044690F8840001281DD0012057
:103A900084F884002420C4F888002068056802683F
:103AA00022F0010202602068826822F060420A432C
:103AB0008260204601F042FA206805602020C4F8A8
:103AC0008800002084F8840070BD022070BD70471B
:103AD000704770B50446D0F88800D4F88C6021682F
:103AE00089684FF01005090618D5212816D12068DD
:103AF000083050E8001F21F0800140E80012002A41
:103B0000F5D1E06F38B1FDF7C9FE20B1E06FFDF7E8
:103B100036FF202823D0204601F0C0FB20688068B3
:103B200040061AD5222E18D12068083050E8001F10
:103B300021F0400140E80012002AF5D1D4F88000BD
:103B400040B1FDF7ABFE28B1D4F88000FDF717FFB8
:103B5000202804D0204601F077FB002070BDC4F877
:103B60009050032070BD70472DE9F0410368044672
:103B7000D86919689A6840F60F0528424FF0000589
:103B80004FF002060AD187067ED501F0200702F029
:103B9000805C57EA0C0777D0616F42E1B64FDFF8DF
:103BA000DCC2174001EA0C0C57EA0C0C6CD05FEA3F
:103BB000C07C0CD05FEAC15C09D54FF0010CC3F8A2
:103BC00020C0D4F8903043F00103C4F8903083074C
:103BD00009D5D30707D023681E62D4F8903043F08C
:103BE0000403C4F8903043070AD5D30708D02668E9
:103BF00004233362D4F8903043F00203C4F89030C9
:103C000003070CD501F020033B4308D026680823A6
:103C10003362D4F8903043F00803C4F890300305C1
:103C20000BD54B0109D526684FF400633362D4F8F5
:103C3000903043F02003C4F89030D4F89030002B3B
:103C40003DD0800609D501F0200002F080510843E4
:103C500003D0616F09B120468847D4F890002168ED
:103C60008968490602D410F0280F2AD0204601F0B6
:103C7000EBFA2068806840061ED52068083050E8BE
:103C8000001F21F0400100E021E040E80012002A7E
:103C9000F3D1D4F8800078B179498163D4F88000F9
:103CA000FDF731FE00280AD0D4F88000816B00E0D7
:103CB0002046BDE8F04108472046FFF754FFBDE825
:103CC000F0812046FFF74FFFC4F89050F7E7D4F893
:103CD0006CC02027BCF1010F7ED15FEAC06C7BD5A0
:103CE0005FEAC16C78D510201862206880684006B1
:103CF00051D5D4F880100A6850680004000C3ED0FA
:103D0000B4F85C3083423AD9A4F85E0008680068D1
:103D100080062CD4216851E8000F20F4807041E81F
:103D20000002002AF6D12068083050E8001F21F078
:103D3000010140E80012002AF5D12068083050E85F
:103D4000001F21F0400140E80012002AF5D1C4F81C
:103D50008C70E566216851E8000F20F0100041E802
:103D60000002002AF6D1D4F88000FDF797FD2667FF
:103D7000B4F85C00B4F85E10401A81B207E0B4F801
:103D80005C1081429BD11068800698D5266720463A
:103D9000FFF72AFE93E7B4F85C00B4F85E10401A0F
:103DA00081B2B4F85E00002889D0002987D022684B
:103DB00052E8000F20F4907042E80003002BF6D187
:103DC0002D4BDB432068083050E8002F1A4040E8B4
:103DD000002CBCF1000F00E00EE0F3D1C4F88C70B1
:103DE000E5666567206850E8002F22F0100240E881
:103DF0000023002BF6D1C9E7C60209D5560207D524
:103E00004FF4801018622046BDE8F041FFF760BE15
:103E100003060AD501F0800302F40002134304D024
:103E2000A16F00297FF444AF49E7420611D54A0645
:103E30000FD52046016851E8002F22F0400241E8EA
:103E40000023002BF6D1C0F88870856700F012F9C6
:103E500035E7020206D54A0004D52046BDE8F04108
:103E6000FFF735BEC00195D5002993DA2046BDE89D
:103E7000F041FFF7DFBD0000010000102001000449
:103E8000F550000810B5040003D0D4F8880010B134
:103E900007E0012010BD002084F88400204600F0D7
:103EA00027F82420C4F888002068016821F0010167
:103EB0000160A06A10B1204601F062F8204601F0CE
:103EC00005FA0128E6D02068416821F4904141605C
:103ED0002068816821F02A0181602068016841F032
:103EE000010101602046BDE8104001F0ADB80000BE
:103EF000F0B597B00646142111A8FCF7EDFA44215D
:103F00006846FCF7E9FA3149306888425CD10225FD
:103F10000024684600950294FEF706FB08B1FCF702
:103F200079FC2B48816D41F400318165816D01F48C
:103F300000311691C16C41F00201C164C06CCDE941
:103F4000125400F002001690182011900720CDE9BD
:103F5000144011A91F48FDF7A7FF204D1E488027D8
:103F600028601A20C5E90104C5E903476C6178019E
:103F7000AC61C5E907402846FDF760FD08B1FCF7D4
:103F800049FCC6F88050AE62144D134860351430B9
:103F900028601B20686005F10801102081E891006D
:103FA0006C61AC61EC6128462C62FDF747FD08B1FD
:103FB000FCF730FCF567002211462620AE62FEF7C2
:103FC0001BFA2620FEF70AFA17B0F0BD00440040A5
:103FD0000010024000040048080002405C04002079
:103FE0007047704770B50446D0F88800202801D08B
:103FF000022070BD39B332B32165A4F85420A4F86F
:1040000056200021C4F890102120C4F88800E06FE9
:10401000D8B1154BC362E36F14481863E36F1448BB
:104020005863E06F134681632068E56F00F1280252
:104030002846216DFDF762FD38B11020C4F89000CC
:104040002020C4F88800012070BD2168402008624B
:104050002068083050E8001F41F0800140E800125D
:10406000002AF5D1002070BDFB5100083D52000828
:104070000551000870477047FEE700EB8100006EB5
:1040800000F0F840704700EB8100006E00F0F8404F
:1040900070478068C0F3C00070478068C0F3C000FC
:1040A00070478068C0F3800070478068C0F380006C
:1040B0007047042303EAD15310B518444369C1F390
:1040C000045107248C40A3438A401343436110BD2D
:1040D000042303EAD15310B518444369C1F30451D2
:1040E00007248C40A3438A401343436110BD00EB77
:1040F0008100016E21F0004111430166704700EB21
:104100008100016E21F000411143016670470000FB
:1041100010B504462DED028BB0EE408A02F018FB7C
:1041200000EE100AD4ED010AB8EE400A30EE600A43
:10413000DFED1B0A20EE200AB5EEC00AF1EE10FA00
:1041400002D29FED180A11E010EE101A164A9142A1
:104150000CDD00EE100A84ED028AB8EE400A84ED10
:10416000010AB0EE480ABDEC028B10BD94ED001AB6
:1041700031EE000AC1EE000A94ED020AB7EE001A11
:1041800020EE200A71EE600A00EE880A00EE900A26
:10419000F8EE600A84ED020AC4ED010AE3E70000CC
:1041A000BD3786356F12833A9A99993EF0B597B02C
:1041B00020210FA8FCF790F93C216846FCF78CF908
:1041C0002E482D49002401604FF44031C0E901140C
:1041D000042585610121C460C0E904410477447766
:1041E000016280F82440C462046380F83840C463EC
:1041F00080F84040FDF7F0F908B1FCF70BFB204ECA
:1042000010A906207F270F9681E89100CDE913546D
:104210000FA91A48FCF7CEFF08B1FCF7FBFA0920FA
:10422000CDE900600220CDE90207CDE904540890F1
:1042300084200A908DF824404FF480708DF825403A
:104240000B908DF826408DF8304069460B48FCF7FE
:10425000B1FC08B1FCF7DEFA0A48009040F20F10FA
:10426000019069460548FCF7A5FC002801D0FCF741
:10427000D1FA17B0F0BD0000000100504801002045
:104280000200300404006008074910B505480860C2
:104290000846FDF7D5FA002803D0BDE81040FCF72A
:1042A000B9BA10BD000C0240B4010020114808B595
:1042B000816C41F004018164816C01F00401009182
:1042C000816C41F001018164806C002200F00100EA
:1042D000009011460B20FEF78FF80B20FEF77EF8BA
:1042E000002211460C20FEF787F8BDE808400C209C
:1042F000FEF774B800100240114810B50F49016074
:10430000002141608160C160017441748174102298
:10431000426101228261C261026242628262C262C1
:10432000C0E90C218163C163FDF740FC002803D084
:10433000BDE81040FCF76EBA10BD000000640040FC
:10434000DC010020074910B5054808600846FDF764
:104350006DFD002803D0BDE81040FCF75BBA10BD2E
:10436000001402404002002030B587B01421684696
:10437000FCF7B2F81648C16C41F02001C164C16C71
:1043800001F020010591C16C41F00101C164C16CD3
:1043900001F001010591C16C41F00201C164C06CE2
:1043A0000C4D00F0020040F24144059001222146EC
:1043B0002846FDF79DFE0120CDE900400020029037
:1043C0000320039069462846FDF76EFD07B030BD17
:1043D0000010024000040048144810B51249016062
:1043E0001349416000210122C0E9021201614161CB
:1043F0008161C1610162FDF7EFFE08B1FCF70AFAC5
:1044000000210A48FDF780FE08B1FCF703FA0021FD
:104410000648FDF7A4FE08B1FCF7FCF9BDE8104022
:104420004FF48010FDF7C4BE005400407802002015
:104430000F065240124810B5104901604FF48271C6
:10444000416000214FF47062C0E902120122C0E90C
:104450000412520282611822C0E907210722416238
:10446000C0E90A1201634163FEF7ECFC002803D0A7
:10447000BDE81040FCF7CEB910BD0000003001408F
:10448000CC02002010B598B00024149415941C217F
:1044900068461694FCF720F8342107A8FCF71CF8AE
:1044A00034483349C0E900142021816042F23311BD
:1044B000C0E9031444618461FFF78EF908B1FCF789
:1044C000A9F91494159414A92A481694FEF704FF28
:1044D00008B1FCF79FF96020CDE900040294039431
:1044E000049405940022694622480694FFF7E2F8F6
:1044F00008B1FCF78FF9042269461E48FFF7DAF885
:1045000008B1FCF787F9082269461A48FFF7D2F884
:1045100008B1FCF77FF942F2011001900C226946C4
:104520001448FFF7C7F808B1FCF774F91148FEF713
:10453000CBFE0794FF200894CDE909404FF40050CA
:10454000CDE90B400D9400030E94CDE90F40C0124D
:10455000CDE9124007A911940648FEF767FE08B19D
:10456000FCF758F90348FFF75BF818B010BD0000DE
:10457000002C01403003002010B588B000241648FC
:104580000094019402940394049405944FF08041A4
:1045900006940160A921C0E90114611EC0E9031459
:1045A0008461FEF743FF08B1FCF734F94FF4805003
:1045B000009069460848FEF7B3FF08B1FCF72AF9F6
:1045C000049404A904480694FEF786FE002801D04E
:1045D000FCF720F908B010BD7C0300201D4810B581
:1045E0001B4901604FF4E1314160002181600C22E0
:1045F000C160C0E904128161C161016241628162EE
:10460000FFF740FC08B1FCF705F900211148FFF75E
:1046100038FA08B1FCF7FEF800210E48FFF70BFA54
:1046200008B1FCF7F7F80B48FFF79AF908B1FCF767
:10463000F1F8084894300068016821F00401016035
:10464000BDE81040102204490248FFF7A8B9000055
:1046500000440040C80300201C010020FEE7FEE7E4
:1046600010B504462DED028BB0EE408A02F070F8D2
:1046700000EE100AD4ED070AB8EE400A30EE600AE8
:10468000DFED410A20EE201AB5EEC01AF1EE10FA65
:1046900004D911EE101AB1F17C5F01DD9FED3B1AD8
:1046A00000EE100AF6EE001AB8EE400A84ED070A92
:1046B00094ED000A94ED082A60EE082A94ED010AB0
:1046C00072EE080A20EE010A20EE200AD4ED030A59
:1046D00040EE210AC4ED030A94ED060AF1EE401AF9
:1046E000F4EEE10AF1EE10FA02D2F0EE610A06E011
:1046F000F4EEC00AF1EE10FA01DDF0EE400AC4ED6E
:10470000030A78EE421A94ED020A70EEA20A84EDD2
:10471000088A60EE211A81EE810A30EE800AD4ED1B
:10472000040AF1EE601AF4EEC01AF1EE10FA02DD9E
:10473000B0EE610A06E0F4EEC00AF1EE10FA01D222
:10474000B0EE600AD4ED090A70EE601A81EE812A9B
:10475000D4ED051AF4EEC21AF1EE10FA04D2B0EE5E
:10476000600A01EE810A0AE0F1EE612AF4EEC22A43
:10477000F1EE10FA03DDB0EE600A01EEC10A84ED3D
:10478000090ABDEC028B10BDBD3786356F12833A26
:104790007047134610B5084601221946FDF7A8FCDC
:1047A000BDE810400A20FDF7EFB9F8B515460E46F2
:1047B0000B460092044600224FF4C05100F038F836
:1047C00088B93346002280212046009500F0A0F8E9
:1047D00048B9334600224FF4C0612046009500F0EE
:1047E00027F8002804D0206E40F020002066032027
:1047F000F8BD7FB5054682B000201646ADF804002E
:1048000002461C4619463046FDF772FC4FF0FF3059
:104810000090012301AA03A92846FEF7B9FB012253
:1048200021463046FDF764FCBDF8040006B070BDBB
:104830002DE9FE4F4FF0000A984617460E460446F3
:104840000C9D8DF804A0FDF759FC411BA8EB010558
:10485000FDF754FC814620684FF4C06B0C30029089
:104860002A480068C0EBC00000EB8000000D6843E0
:10487000009043E05E4506D12FB9029800788DF88C
:1048800004009DF80400B8F1FF3F37D0FDF736FC77
:10489000A0EB0900A84203D215B1009858B32BE051
:1048A0002068416821F0E00141606068B0F5827FD6
:1048B0000BD1A068B0F5004F02D0B0F5806F04D1E5
:1048C0002068016821F040010160A06AB0F5005F36
:1048D00009D12068016821F4005101602068016855
:1048E00041F400510160012084F85D0084F85CA06F
:1048F0000320BDE8FE8F0025401E009020688068E0
:104900003040B842B6D10020F3E700001801002083
:104910002DE9F8431E46914688460446089DFDF75A
:10492000EDFB401B351AFDF7E9FB074625480068FB
:10493000C0F3CB30684338E0701C37D0FDF7DEFBA6
:10494000C01BA84203D215B1009860B32CE02068C8
:10495000416821F0E00141606068B0F5827F0BD1D1
:10496000A068B0F5004F02D0B0F5806F04D1206888
:10497000016821F040010160A06AB0F5005F09D133
:104980002068016821F4005101602068016841F449
:1049900000510160012084F85D00002084F85C0073
:1049A0000320BDE8F8830025401E00902068816840
:1049B00038EA010004D000214945BDD10020F0E7CC
:1049C0000121F9E7180100207047000010B5FBF73E
:1049D00085FE00B200EE100ADFED130A1449B8EEAE
:1049E000C00A144B20EE200ADFED100A20EE200A48
:1049F00081ED000AD1ED010A70EE600AB0EEE01A16
:104A000011EE102A9A420BDDF5EEC00AF1EE10FA13
:104A100002DD4FF0FF3200E00122CB681A44CA6089
:104A200081ED010A10BD0000DB0FC9400000803895
:104A3000D40000207CD9A040FDF77EBC10B594B016
:104A400038216846FBF748FD14210EA8FBF744FD0A
:104A50000020FDF703FD01200090000401900220DA
:104A60000324CDE907045521CDE909010B900C90F1
:104A70000D906846FDF7E4FF08B172B6FEE70F201F
:104A8000CDE90E04002010901190129004210EA880
:104A9000FDF78EFE002801D072B6FEE714B010BDFF
:104AA0000248016841F470010160704788ED00E040
:104AB0002DE9F0430268264B264D274E274C4FF038
:104AC0008049984207D0484505D0A84203D0B0425B
:104AD00001D0A04203D122F070074A683A43204F28
:104AE000DFF880C0DFF8808098420DD048450BD0B9
:104AF000A84209D0B04207D0A04205D0B84203D0A6
:104B0000604501D0404503D122F44075CA682A436C
:104B10004D6922F080022A4302608A68C2620A68F4
:104B20008262984207D0A04205D0B84203D06045C7
:104B300001D0404501D10969016301214161016949
:104B4000C90703D0016921F001010161BDE8F083CB
:104B5000002C0140000400400008004000340140E7
:104B600000400140004401400048014010B501F000
:104B70001F030121046A99408C430462016A9A4030
:104B80001143016210BD10B501F00F030421046A46
:104B900099408C430462016A9A401143016210BD3E
:104BA00010B5846842EA032224F47F440A43224376
:104BB000826010BD8268034B1A400A4342F007012D
:104BC000816070478FFFCFFF2DE9F043056A026ACD
:104BD00022F001020262436882691C4C25F0020542
:104BE00022400C6822F0030214438A68194E2A43BB
:104BF000174D194FDFF864C0DFF86490A84207D062
:104C0000B04205D0B84203D0604501D0484506D136
:104C100022F00808CA6842EA080222F00402A84208
:104C200007D0B04205D0B84203D0604501D0484516
:104C300005D14D6923F440731D438B692B434360B9
:104C40008461496841630262BDE8F0838FFFFEFF23
:104C5000002C01400034014000400140004401406C
:104C600000480140F0B5056A026A22F010020262B3
:104C700042688369194C1B4E23400C6823F440732F
:104C800043EA042425F020038D6843EA0513144DFC
:104C9000A84201D0B04206D1CF6823F0800343EA96
:104CA000071323F04003A8420AD0B04208D00E4DAB
:104CB000A84205D00D4DA84202D00D4DA84207D103
:104CC0004D6922F4406242EA85028D6942EA85021A
:104CD00042608461496881630362F0BDFF8FFFFE1B
:104CE000002C0140003401400040014000440140DC
:104CF00000480140F0B5056A026A22F4807202623F
:104D00004368C269194C1B4E22400C6822F0030212
:104D1000144325F400728D6842EA0522144DA8421E
:104D200001D0B04206D1CF6822F4006242EA0722E5
:104D300022F48062A8420AD0B04208D00E4DA842A8
:104D400005D00E4DA84202D00D4DA84207D14D69A5
:104D500023F4405343EA05138D6943EA0513436086
:104D6000C4614968C1630262F0BD00008FFFFEFFAD
:104D7000002C01400034014000400140004401404B
:104D800000480140F0B5056A026A22F480520262CE
:104D90004268C369194C1B4E23400C6823F44073CE
:104DA00043EA042425F400538D6843EA0533144D87
:104DB000A84201D0B04206D1CF6823F4004343EAB1
:104DC000073323F48043A8420AD0B04208D00E4DE6
:104DD000A84205D00D4DA84202D00D4DA84207D1E2
:104DE0004D6922F4404242EA85128D6942EA8512F9
:104DF0004260C461496801640362F0BDFF8FFFFE39
:104E0000002C0140003401400040014000440140BA
:104E10000048014030B5056A026A22F4803202621D
:104E20004268036D114C23400C681C4325F4003389
:104E30000D8943EA05430E4DA8420BD00D4DA84203
:104E400008D00D4DA84205D00C4DA84202D00C4D03
:104E5000A84204D14D6922F4803242EA0522426020
:104E6000046549688164036230BD00008FFFFEFF66
:104E7000002C01400034014000400140004401404A
:104E80000048014030B5046A026A22F480120262CE
:104E90004268036D114D24F400142B400D6843EA61
:104EA00005230D8944EA05540D4DA8420BD00D4D44
:104EB000A84208D00C4DA84205D00C4DA84202D003
:104EC0000B4DA84204D14D6922F4802242EA85228A
:104ED000426003654968C164046230BDFF8FFFFE14
:104EE000002C0140003401400040014000440140DA
:104EF0000048014010B5036A046A24F0010404620A
:104F0000846924F0F00444EA021423F00A020A43FC
:104F10008461026210BD10B5036A046A24F01004B3
:104F20000462846923F0A00324F4704444EA02324A
:104F300043EA01118261016210BD000030B5416E8B
:104F4000B9B1026891689268C1F342610B4B520F8C
:104F50009C5CE50003F10804A25CB5FBF2F2A0F84A
:104F60006A205A5C615CD200B2FBF1F1A0F86810D3
:104F700030BD0121A0F86A10F8E7000048F50008EC
:104F800090F82810090706D501684A68836B22F457
:104F900000421A434A6090F82810C90706D00168F9
:104FA0004A68C36A22F400321A434A6090F8281013
:104FB000890706D501684A68036B22F480321A43D8
:104FC0004A6090F82810490706D501684A68436B83
:104FD00022F480221A434A6090F82810C90606D5A8
:104FE00001688A68C36B22F480521A438A6090F881
:104FF0002810890606D501688A68036C22F40052DD
:105000001A438A6090F82810490611D501684A6849
:10501000436C22F480121A434A60416CB1F5801F40
:1050200006D101684A68836C22F4C0021A434A60C0
:1050300090F82810090606D501684A68C06C22F469
:10504000002202434A6070472DE9F84300260446D7
:10505000C0F89060FDF752F88046206800684FF075
:10506000200500076FF07E4713D543460022290430
:105070002046009700F0B8FA58B1216851E8000FB7
:1050800020F0800041E80002002AF6D1C4F88850E0
:1050900021E020680068400722D5434600224FF4F3
:1050A00080012046009700F09FFAC8B1216851E8BE
:1050B000000F20F4907041E80002002AF6D1206829
:1050C000083050E8001F21F0010140E80012002ADA
:1050D000F5D1C4F88C5084F884600320BDE8F883CF
:1050E000C4F88850C4F88C5044F86C6F666026761B
:1050F0000020F3E710B5806A0021A0F85E10FEF7EB
:1051000032FD10BD70B5846AD4F88800D4F88C5094
:10511000216889684FF00006090606D5212804D1C8
:10512000A4F85660204600F0B9F820688068400670
:1051300006D5222D04D1A4F85E60204600F084F844
:10514000D4F8900040F01000C4F890002046FEF71C
:105150000AFD70BD10B50146806A096809684FF004
:10516000000289062DD4A0F85E20036853E8001FD2
:1051700021F4807143E80014002CF6D10168083155
:1051800051E8003F23F0010341E80034002CF5D141
:105190000168083151E8003F23F0400341E8003442
:1051A000002CF5D12021C0F88C10C16E012908D146
:1051B000016851E8003F23F0100341E80034002C5F
:1051C000F6D10267C16E012902D0FEF709FF10BDBA
:1051D000B0F85C10FEF708FC10BD10B5806A012124
:1051E0000167C16E012902D0FEF7FBFE10BDB0F8C9
:1051F0005C104908FEF7F8FB10BD10B50146806A47
:1052000009680968890616D40021A0F856100168BB
:10521000083151E8002F22F0800241E80023002BE2
:10522000F5D1026852E8001F41F0400142E8001346
:10523000002BF6D110BDFEF71DFF10BD10B5806A22
:10524000FEF719FF10BD000010B5026852E8001FFC
:1052500021F4907142E80013002BF6D10E4B026846
:10526000083252E8001F194042E80014002CF6D121
:10527000C16E012908D1016851E8002F22F0100207
:1052800041E80023002BF6D12021C0F88C1000212A
:10529000C166416710BD0000FEFFFFEF026852E8E3
:1052A000001F21F0C00142E80013002BF6D1016875
:1052B000083151E8002F22F4000241E80023002BBE
:1052C000F5D12021C0F88810704700002DE9F04189
:1052D0000446016880682269E36910436269002519
:1052E0001A431043DFF82CC20A688B4B1A40024362
:1052F0000A6020684168E26821F44051114341602E
:105300002168A069614501D0226A10438A68834BF5
:105310001A4002438A602068C16A626A21F00F0164
:105320001143C1627E4923687E488B420DD1D0F87B
:10533000880010F0030006D0012855D0022842D082
:1053400003283FD152E001203DE077498B420BD149
:10535000D0F8880010F00C0035D0042833D008288D
:1053600040D00C282ED141E070498B420BD1D0F8AF
:10537000880010F0300026D0102835D0202831D0F9
:1053800030281FD132E06A498B420BD1D0F8880017
:1053900010F0C00017D0402826D0802822D0C02886
:1053A00010D123E063450DD1D0F8880010F440609F
:1053B00009D0B0F5806F17D0B0F5006F12D0B0F5FE
:1053C000406F13D010205B495B4F00264FF4004222
:1053D00063453BD160B1022813D004280BD00828C4
:1053E00072D10DE00220EEE70420ECE70820EAE7A6
:1053F000FDF7CCFA01E0FDF7EDFA010001D17CE008
:105400001146606A37F810206768B1FBF2F007EBCD
:105410004703834270D8B0EB073F6DD8002308469E
:105420001946FAF749FF090241EA106102027808B9
:10543000101871413A460023FAF73EFF3F4AA0F5A3
:105440004071914258D82168C86056E0E3694FF630
:10545000EF7893422CD109284ED2DFE800F00508FE
:10546000114D0D4D4D4D1000FDF790FA01E0FDF787
:105470009FFA010004D140E0FDF7ACFAF9E71146CC
:10548000606A37F81000B1FBF0F04100606801EB92
:105490005001B1FBF0F0A0F1100141452CD84FF6BE
:1054A000F0710140C0F3420001432068C16024E074
:1054B000092821D2DFE800F0050912200E20202063
:1054C0001100FDF763FA02E016E0FDF771FA010042
:1054D00004D112E0FDF77EFAF9E71146606A37F869
:1054E0001000B1FBF0F1606801EB5001B1FBF0F08E
:1054F000A0F1100141450AD901250120A4F86A0054
:1055000024F8680F2846E6602661BDE8F08180B285
:1055100099E7000000800040F369FFCFFFF4FF111E
:1055200000380140001002400044004000480040A4
:10553000004C00400024F40030F50008FFFC0F0090
:1055400070B58165A0F85C2000210446C0F8901079
:105550002220C4F88C00D4F88000F0B11F4BC36245
:10556000D4F880301E481863D4F880301D48586342
:10557000D4F8800013468163A56D21682A46243142
:10558000D4F88000FCF7BAFA38B11020C4F89000C3
:105590002020C4F88C00012070BD206940B1216832
:1055A00051E8000F40F4807041E80002002AF6D173
:1055B0002068083050E8001F41F0010140E8001267
:1055C000002AF5D12068083050E8001F41F0400162
:1055D00040E80012002AF5D1002070BD55510008A6
:1055E000DB510008055100082DE9F04799461746A0
:1055F0000D4604464FF00008089E33E0701C31D081
:10560000FCF77CFDA0EB0900B04218D8BEB12068C1
:105610000168490726D5802D24D0402D22D0C169AC
:10562000C94309070DD4082505622046FFF70CFE83
:10563000C4F8905084F884800120BDE8F0870320EE
:10564000FBE7C069C04300050CD421684FF400603B
:1056500008622046FFF7F8FD2020C4F8900084F887
:105660008480ECE72068C06935EA000004D000209F
:10567000B842C3D00020E0E70120F9E70148FEF777
:1056800073BA0000C8030020FEE703B4019841008C
:10569000009850EAC12018BF04204A0D18BF40F0FE
:1056A000010040F2FF72B2EB515F08BF40F0020010
:1056B000012808BF052002B070470907090E00281D
:1056C00004DB00F1E02080F80014704700F00F00C8
:1056D00000F1E02080F8141D704700000000000079
:1056E0002DE9F0412DED020B9FED3D0B2DED028BD1
:1056F0009FED3D8BDDE90254C4F30A50A0F2FF3662
:10570000142E37DA002E18DA53EC102B9DED020B15
:1057100051EC100B01F000F953EC182B01F044FD93
:1057200057D2002CA4BF0024254652DA24F00040B2
:10573000284318BF2E4C4CD01AE02E4820FA06F70A
:1057400004EA070028431FD053EC102B9DED020BF9
:1057500051EC100B01F0E0F853EC182B01F024FD94
:1057600037D2002C03DA4FF48010F0400444BC43DD
:1057700000252EE0332E07DCA6F114004FF0FF3198
:1057800021FA00F73D4206D19DED020BBDEC028BE4
:1057900002B0BDE8F08153EC102B9DED020B51ECF3
:1057A000100B01F037FD53EC182B01F0FDFC10D26B
:1057B000002C0DDA142E08BF641C09D0C6F1340089
:1057C000012101FA00F02844A84238BF641C0546B4
:1057D000BD43CDE902549DED020BD7E70000000068
:1057E0009C7500883CE4377E00000000000000004B
:1057F0000000F0BFFFFF0F0010B52DED040B86B0C9
:105800009DED060B10EE100A10EE901A8DED000BB8
:10581000002818BF0120084320F00040C0F17F603D
:1058200000F1E040C00F21D19DED080B10EE101AE1
:1058300010EE900A8DED000B002918BF01210843DE
:1058400020F00040C0F17F6000F1E040C00F0DD1BA
:1058500029490798B1EB400F04BF0698002842D0B1
:105860000998400004BF089800283CD09DED080B23
:1058700053EC102B9DED060B51EC100B01F0E6FBE9
:10588000CDE902019DED020B40F2FF7110EE900A8E
:105890008DED000B31EA105021D00798039900F0EC
:1058A000004001F00041884219D09DED080B8DEDBC
:1058B000040B9DED020B8DED000B10EE900A059987
:1058C00061F31E0005909DED041B9DED020B51EC54
:1058D000110B53EC102B01F09DFCCDE902019DED65
:1058E000020B0AB010BD0120FAF725FE0AB0BDE890
:1058F000104000F05DBC00000000E0FF0000000070
:1059000010B52F499FED2C1B2DED020B84B005988F
:1059100020F000408842DCBF00209DED040B32DD0A
:105920002849884209D1049840B94FF00100FAF79C
:1059300002FE00F03DFC06B010BD05DB9DED040B42
:1059400000F02AFC06B010BD68469DED040B00F087
:105950003BF810F0030011D0012818D09DED021B78
:105960009DED000B02281AD000F04AFA51EC100B02
:1059700000F094FF06B041EC100B10BD9DED021B32
:105980009DED000B012000F06FFB06B010BD9DEDFA
:10599000021B9DED000B00F033FA06B010BD012094
:1059A00000F062FB51EC100B00F078FF06B041EC08
:1059B000100B10BD000000000000000000000000FF
:1059C000FB21E93F0000F07F2DE9F14F04462DED6A
:1059D000020B2DED088B8AB09FEDE70B80ED020BDB
:1059E000139EE74826F0004585420ADC9DED120B28
:1059F000002084ED000B0AB0BDEC088B03B0BDE8BD
:105A0000F08FE0489FEDE0AB9FEDE1BBA84247DDA2
:105A1000E14F9FEDE39B9FEDE48B9DED120B53EC6B
:105A20001A2B51EC100B002E1CDD01F0FFFB41EC9A
:105A3000100BBD4208D053EC1B2B51EC100B01F0A6
:105A4000F5FBC4E900010BE053EC192B51EC100BF2
:105A500001F0ECFB53EC182B01F0E8FBC4E900016A
:105A60000120C8E700F058FF41EC100BBD4208D000
:105A700053EC1B2B51EC100B00F04EFFC4E900015E
:105A80000BE053EC192B51EC100B00F045FF53ECDD
:105A9000182B00F041FFC4E900014FF0FF30AAE7E6
:105AA000C348A84279DB9DED120B51EC100B00F0BE
:105AB000B1FC41EC180B9FEDC00B53EC102B01F027
:105AC000CDF99FEDBF1B53EC112B00F025FF01F02A
:105AD0002FF9074601F05BF941EC190B53EC1A2B37
